{"abi":[{"type":"constructor","inputs":[{"name":"_qtmToken","type":"address","internalType":"address"},{"name":"_governance","type":"address","internalType":"address"}],"stateMutability":"nonpayable"},{"type":"function","name":"COMMISSION_RATE_PRECISION","inputs":[],"outputs":[{"name":"","type":"uint256","internalType":"uint256"}],"stateMutability":"view"},{"type":"function","name":"MAX_COMMISSION_RATE","inputs":[],"outputs":[{"name":"","type":"uint256","internalType":"uint256"}],"stateMutability":"view"},{"type":"function","name":"MAX_STAKE","inputs":[],"outputs":[{"name":"","type":"uint256","internalType":"uint256"}],"stateMutability":"view"},{"type":"function","name":"MAX_VALIDATORS","inputs":[],"outputs":[{"name":"","type":"uint256","internalType":"uint256"}],"stateMutability":"view"},{"type":"function","name":"MIN_DELEGATION","inputs":[],"outputs":[{"name":"","type":"uint256","internalType":"uint256"}],"stateMutability":"view"},{"type":"function","name":"MIN_STAKE","inputs":[],"outputs":[{"name":"","type":"uint256","internalType":"uint256"}],"stateMutability":"view"},{"type":"function","name":"SLASHING_RATE_DOUBLE_SIGN","inputs":[],"outputs":[{"name":"","type":"uint256","internalType":"uint256"}],"stateMutability":"view"},{"type":"function","name":"SLASHING_RATE_DOWNTIME","inputs":[],"outputs":[{"name":"","type":"uint256","internalType":"uint256"}],"stateMutability":"view"},{"type":"function","name":"SLASHING_RATE_INVALID_BLOCK","inputs":[],"outputs":[{"name":"","type":"uint256","internalType":"uint256"}],"stateMutability":"view"},{"type":"function","name":"UNBONDING_PERIOD","inputs":[],"outputs":[{"name":"","type":"uint256","internalType":"uint256"}],"stateMutability":"view"},{"type":"function","name":"activeValidatorCount","inputs":[],"outputs":[{"name":"","type":"uint256","internalType":"uint256"}],"stateMutability":"view"},{"type":"function","name":"activeValidators","inputs":[{"name":"","type":"uint256","internalType":"uint256"}],"outputs":[{"name":"","type":"address","internalType":"address"}],"stateMutability":"view"},{"type":"function","name":"addStake","inputs":[{"name":"amount","type":"uint256","internalType":"uint256"}],"outputs":[],"stateMutability":"nonpayable"},{"type":"function","name":"claimRewards","inputs":[],"outputs":[],"stateMutability":"nonpayable"},{"type":"function","name":"completeUnbonding","inputs":[{"name":"unbondingId","type":"uint256","internalType":"uint256"}],"outputs":[],"stateMutability":"nonpayable"},{"type":"function","name":"delegate","inputs":[{"name":"validator","type":"address","internalType":"address"},{"name":"amount","type":"uint256","internalType":"uint256"}],"outputs":[],"stateMutability":"nonpayable"},{"type":"function","name":"delegations","inputs":[{"name":"","type":"address","internalType":"address"},{"name":"","type":"address","internalType":"address"}],"outputs":[{"name":"amount","type":"uint256","internalType":"uint256"},{"name":"shares","type":"uint256","internalType":"uint256"},{"name":"lastClaimBlock","type":"uint256","internalType":"uint256"},{"name":"unbondingAmount","type":"uint256","internalType":"uint256"},{"name":"unbondingEndTime","type":"uint256","internalType":"uint256"}],"stateMutability":"view"},{"type":"function","name":"distributeBlockReward","inputs":[{"name":"validator","type":"address","internalType":"address"},{"name":"blockReward","type":"uint256","internalType":"uint256"}],"outputs":[],"stateMutability":"nonpayable"},{"type":"function","name":"getActiveValidators","inputs":[],"outputs":[{"name":"","type":"address[]","internalType":"address[]"}],"stateMutability":"view"},{"type":"function","name":"getDelegation","inputs":[{"name":"delegator","type":"address","internalType":"address"},{"name":"validator","type":"address","internalType":"address"}],"outputs":[{"name":"","type":"tuple","internalType":"struct ValidatorRegistry.Delegation","components":[{"name":"amount","type":"uint256","internalType":"uint256"},{"name":"shares","type":"uint256","internalType":"uint256"},{"name":"lastClaimBlock","type":"uint256","internalType":"uint256"},{"name":"unbondingAmount","type":"uint256","internalType":"uint256"},{"name":"unbondingEndTime","type":"uint256","internalType":"uint256"}]}],"stateMutability":"view"},{"type":"function","name":"getTotalDelegated","inputs":[],"outputs":[{"name":"","type":"uint256","internalType":"uint256"}],"stateMutability":"view"},{"type":"function","name":"getTotalStaked","inputs":[],"outputs":[{"name":"","type":"uint256","internalType":"uint256"}],"stateMutability":"view"},{"type":"function","name":"getValidator","inputs":[{"name":"validator","type":"address","internalType":"address"}],"outputs":[{"name":"","type":"tuple","internalType":"struct ValidatorRegistry.Validator","components":[{"name":"validatorAddress","type":"address","internalType":"address"},{"name":"quantumPublicKey","type":"bytes","internalType":"bytes"},{"name":"sigAlgorithm","type":"uint8","internalType":"uint8"},{"name":"selfStake","type":"uint256","internalType":"uint256"},{"name":"totalDelegated","type":"uint256","internalType":"uint256"},{"name":"commissionRate","type":"uint256","internalType":"uint256"},{"name":"lastActiveBlock","type":"uint256","internalType":"uint256"},{"name":"missedBlocks","type":"uint256","internalType":"uint256"},{"name":"totalBlocks","type":"uint256","internalType":"uint256"},{"name":"isActive","type":"bool","internalType":"bool"},{"name":"isSlashed","type":"bool","internalType":"bool"},{"name":"registrationBlock","type":"uint256","internalType":"uint256"},{"name":"jailUntilBlock","type":"uint256","internalType":"uint256"},{"name":"metadata","type":"string","internalType":"string"}]}],"stateMutability":"view"},{"type":"function","name":"getValidatorCount","inputs":[],"outputs":[{"name":"total","type":"uint256","internalType":"uint256"},{"name":"active","type":"uint256","internalType":"uint256"}],"stateMutability":"view"},{"type":"function","name":"getValidatorPerformance","inputs":[{"name":"validator","type":"address","internalType":"address"}],"outputs":[{"name":"missedBlocks","type":"uint256","internalType":"uint256"},{"name":"totalBlocks","type":"uint256","internalType":"uint256"},{"name":"uptime","type":"uint256","internalType":"uint256"}],"stateMutability":"view"},{"type":"function","name":"governance","inputs":[],"outputs":[{"name":"","type":"address","internalType":"address"}],"stateMutability":"view"},{"type":"function","name":"isValidator","inputs":[{"name":"","type":"address","internalType":"address"}],"outputs":[{"name":"","type":"bool","internalType":"bool"}],"stateMutability":"view"},{"type":"function","name":"isValidatorActive","inputs":[{"name":"validator","type":"address","internalType":"address"}],"outputs":[{"name":"","type":"bool","internalType":"bool"}],"stateMutability":"view"},{"type":"function","name":"nextUnbondingId","inputs":[],"outputs":[{"name":"","type":"uint256","internalType":"uint256"}],"stateMutability":"view"},{"type":"function","name":"pendingRewards","inputs":[{"name":"","type":"address","internalType":"address"}],"outputs":[{"name":"","type":"uint256","internalType":"uint256"}],"stateMutability":"view"},{"type":"function","name":"qtmToken","inputs":[],"outputs":[{"name":"","type":"address","internalType":"contract IQuantumToken"}],"stateMutability":"view"},{"type":"function","name":"registerValidator","inputs":[{"name":"quantumPublicKey","type":"bytes","internalType":"bytes"},{"name":"sigAlgorithm","type":"uint8","internalType":"uint8"},{"name":"initialStake","type":"uint256","internalType":"uint256"},{"name":"commissionRate","type":"uint256","internalType":"uint256"},{"name":"metadata","type":"string","internalType":"string"}],"outputs":[],"stateMutability":"nonpayable"},{"type":"function","name":"slashValidator","inputs":[{"name":"validator","type":"address","internalType":"address"},{"name":"reason","type":"uint8","internalType":"uint8"}],"outputs":[],"stateMutability":"nonpayable"},{"type":"function","name":"totalDelegated","inputs":[],"outputs":[{"name":"","type":"uint256","internalType":"uint256"}],"stateMutability":"view"},{"type":"function","name":"totalStaked","inputs":[],"outputs":[{"name":"","type":"uint256","internalType":"uint256"}],"stateMutability":"view"},{"type":"function","name":"unbondingRequests","inputs":[{"name":"","type":"uint256","internalType":"uint256"}],"outputs":[{"name":"delegator","type":"address","internalType":"address"},{"name":"validator","type":"address","internalType":"address"},{"name":"amount","type":"uint256","internalType":"uint256"},{"name":"completionTime","type":"uint256","internalType":"uint256"}],"stateMutability":"view"},{"type":"function","name":"undelegate","inputs":[{"name":"validator","type":"address","internalType":"address"},{"name":"amount","type":"uint256","internalType":"uint256"}],"outputs":[],"stateMutability":"nonpayable"},{"type":"function","name":"unjailValidator","inputs":[],"outputs":[],"stateMutability":"nonpayable"},{"type":"function","name":"updateCommissionRate","inputs":[{"name":"newRate","type":"uint256","internalType":"uint256"}],"outputs":[],"stateMutability":"nonpayable"},{"type":"function","name":"updateGovernance","inputs":[{"name":"newGovernance","type":"address","internalType":"address"}],"outputs":[],"stateMutability":"nonpayable"},{"type":"function","name":"updateValidatorKeys","inputs":[{"name":"newPublicKey","type":"bytes","internalType":"bytes"},{"name":"sigAlgorithm","type":"uint8","internalType":"uint8"},{"name":"proof","type":"bytes","internalType":"bytes"}],"outputs":[],"stateMutability":"nonpayable"},{"type":"function","name":"updateValidatorPerformance","inputs":[{"name":"validator","type":"address","internalType":"address"},{"name":"missed","type":"bool","internalType":"bool"}],"outputs":[],"stateMutability":"nonpayable"},{"type":"function","name":"validatorCount","inputs":[],"outputs":[{"name":"","type":"uint256","internalType":"uint256"}],"stateMutability":"view"},{"type":"function","name":"validatorSet","inputs":[{"name":"","type":"uint256","internalType":"uint256"}],"outputs":[{"name":"","type":"address","internalType":"address"}],"stateMutability":"view"},{"type":"function","name":"validators","inputs":[{"name":"","type":"address","internalType":"address"}],"outputs":[{"name":"validatorAddress","type":"address","internalType":"address"},{"name":"quantumPublicKey","type":"bytes","internalType":"bytes"},{"name":"sigAlgorithm","type":"uint8","internalType":"uint8"},{"name":"selfStake","type":"uint256","internalType":"uint256"},{"name":"totalDelegated","type":"uint256","internalType":"uint256"},{"name":"commissionRate","type":"uint256","internalType":"uint256"},{"name":"lastActiveBlock","type":"uint256","internalType":"uint256"},{"name":"missedBlocks","type":"uint256","internalType":"uint256"},{"name":"totalBlocks","type":"uint256","internalType":"uint256"},{"name":"isActive","type":"bool","internalType":"bool"},{"name":"isSlashed","type":"bool","internalType":"bool"},{"name":"registrationBlock","type":"uint256","internalType":"uint256"},{"name":"jailUntilBlock","type":"uint256","internalType":"uint256"},{"name":"metadata","type":"string","internalType":"string"}],"stateMutability":"view"},{"type":"function","name":"withdrawStake","inputs":[{"name":"amount","type":"uint256","internalType":"uint256"}],"outputs":[],"stateMutability":"nonpayable"},{"type":"event","name":"CommissionUpdated","inputs":[{"name":"validator","type":"address","indexed":true,"internalType":"address"},{"name":"oldRate","type":"uint256","indexed":false,"internalType":"uint256"},{"name":"newRate","type":"uint256","indexed":false,"internalType":"uint256"}],"anonymous":false},{"type":"event","name":"DelegationAdded","inputs":[{"name":"delegator","type":"address","indexed":true,"internalType":"address"},{"name":"validator","type":"address","indexed":true,"internalType":"address"},{"name":"amount","type":"uint256","indexed":false,"internalType":"uint256"}],"anonymous":false},{"type":"event","name":"DelegationRemoved","inputs":[{"name":"delegator","type":"address","indexed":true,"internalType":"address"},{"name":"validator","type":"address","indexed":true,"internalType":"address"},{"name":"amount","type":"uint256","indexed":false,"internalType":"uint256"}],"anonymous":false},{"type":"event","name":"RewardsClaimed","inputs":[{"name":"account","type":"address","indexed":true,"internalType":"address"},{"name":"amount","type":"uint256","indexed":false,"internalType":"uint256"}],"anonymous":false},{"type":"event","name":"StakeAdded","inputs":[{"name":"validator","type":"address","indexed":true,"internalType":"address"},{"name":"amount","type":"uint256","indexed":false,"internalType":"uint256"}],"anonymous":false},{"type":"event","name":"StakeRemoved","inputs":[{"name":"validator","type":"address","indexed":true,"internalType":"address"},{"name":"amount","type":"uint256","indexed":false,"internalType":"uint256"}],"anonymous":false},{"type":"event","name":"UnbondingCompleted","inputs":[{"name":"id","type":"uint256","indexed":true,"internalType":"uint256"}],"anonymous":false},{"type":"event","name":"UnbondingInitiated","inputs":[{"name":"id","type":"uint256","indexed":true,"internalType":"uint256"},{"name":"delegator","type":"address","indexed":false,"internalType":"address"},{"name":"validator","type":"address","indexed":false,"internalType":"address"},{"name":"amount","type":"uint256","indexed":false,"internalType":"uint256"}],"anonymous":false},{"type":"event","name":"ValidatorActivated","inputs":[{"name":"validator","type":"address","indexed":true,"internalType":"address"}],"anonymous":false},{"type":"event","name":"ValidatorDeactivated","inputs":[{"name":"validator","type":"address","indexed":true,"internalType":"address"},{"name":"reason","type":"string","indexed":false,"internalType":"string"}],"anonymous":false},{"type":"event","name":"ValidatorJailed","inputs":[{"name":"validator","type":"address","indexed":true,"internalType":"address"},{"name":"until","type":"uint256","indexed":false,"internalType":"uint256"}],"anonymous":false},{"type":"event","name":"ValidatorKeysUpdated","inputs":[{"name":"validator","type":"address","indexed":true,"internalType":"address"},{"name":"newKey","type":"bytes","indexed":false,"internalType":"bytes"},{"name":"algorithm","type":"uint8","indexed":false,"internalType":"uint8"}],"anonymous":false},{"type":"event","name":"ValidatorRegistered","inputs":[{"name":"validator","type":"address","indexed":true,"internalType":"address"},{"name":"quantumPublicKey","type":"bytes","indexed":false,"internalType":"bytes"},{"name":"stake","type":"uint256","indexed":false,"internalType":"uint256"}],"anonymous":false},{"type":"event","name":"ValidatorSlashed","inputs":[{"name":"validator","type":"address","indexed":true,"internalType":"address"},{"name":"amount","type":"uint256","indexed":false,"internalType":"uint256"},{"name":"reason","type":"uint8","indexed":false,"internalType":"uint8"}],"anonymous":false},{"type":"event","name":"ValidatorUnjailed","inputs":[{"name":"validator","type":"address","indexed":true,"internalType":"address"}],"anonymous":false}],"bytecode":{"object":"0x60a0346100af57601f612e7a38819003918201601f19168301916001600160401b038311848410176100b35780849260409485528339810103126100af57610052602061004b836100c7565b92016100c7565b6001600160a01b039182166080525f80546001600160a01b03191691909216179055604051612d9e90816100dc823960805181818161044d01528181610b6201528181610e830152818161137a015281816115ed015261239b0152f35b5f80fd5b634e487b7160e01b5f52604160045260245ffd5b51906001600160a01b03821682036100af5756fe60806040526004361015610011575f80fd5b5f5f3560e01c8062fa3d5014612578578063026e402b146122e65780630917e7761461100e5780630f43a677146122c957806314f64c781461228757806315049a5a146121b557806315e01c4814611f875780631904bb2e14611d4e578063207239c014610c745780632340e8d314611d3157806325d5971f14611b5b578063299c723314611b3f5780632d67e586146114e95780632f2c3f2e146114cd57806331d7a26214611495578063326ae8b414611439578063372500ab1461131757806342ad55ac146112925780634d99dd16146110b05780635aa6e675146110895780636febeb201461106c5780637071688a14611048578063714897df1461038357806380d04de81461102b578063817b1cd21461100e5780638ccdadc214610eb25780638f16768314610e6d5780639de7025814610da5578063aa27256d14610cc5578063b256126314610c79578063b32da7a514610c74578063bd3169ac14610aea578063c64814dd14610a6b578063c671b9bc146109ca578063c98517c5146109a4578063cb1c2b5c1461097f578063ce5cf377146108a1578063d9a912ec14610883578063e013a6251461085f578063e202320e146105a3578063e64808f314610522578063eb4f16b5146103a6578063f297687114610388578063f9d3173914610383578063fa52c7d8146102545763facd743b14610213575f80fd5b346102515760203660031901126102515760209060ff906040906001600160a01b0361023d61262a565b168152600884522054166040519015158152f35b80fd5b5034610251576020366003190112610251576001600160a01b0361027661262a565b168152600560205260409081902080549151916001600160a01b031690826102a18160018401612767565b036102ac908461283a565b600281015460ff1660038201546004830154600584015460068501546007860154600887015491600988015493600a89015495600b8a01549760405180600c819d01906102f891612767565b03610303908c61283a565b6040519c8d9c8d5260208d016101c090526101c08d01610322916126d4565b9960408d015260608c015260808b015260a08a015260c089015260e088015261010087015260ff8116151561012087015260081c60ff1615156101408601526101608501526101808401528281036101a084015261037f916126d4565b0390f35b612714565b50346102515780600319360112610251576020600254604051908152f35b50346102515760203660031901126102515760043533825260086020526103d360ff60408420541661285b565b33825260056020526040822090600960038301926104086a084595161401484a000000610401858754612964565b1115612a81565b019061041b60ff835460081c161561289d565b6040516323b872dd60e01b81523360048201523060248201526044810182905292602084606481886001600160a01b037f0000000000000000000000000000000000000000000000000000000000000000165af19384156105175760ff9461048a9187916104e8575b506128f5565b610495828254612964565b90556104a381600154612964565b6001556040519081527f7c717985ac273e663b7f3050f5b15a4388ff6ed952338954f650e2093e13937f60203392a25416156104dc5780f35b6104e533612c5c565b80f35b61050a915060203d602011610510575b610502818361283a565b8101906128dd565b5f610484565b503d6104f8565b6040513d87823e3d90fd5b50346102515760203660031901126102515760043590600b5482101561025157600b5482101561058f57600b81527f0175b7a638427703f0dbe7bb9bbf987a2551717b34e79f33b5b1008d1fa01db99091015460405160039290921b1c6001600160a01b03168152602090f35b634e487b7160e01b81526032600452602490fd5b5034610251576040366003190112610251576105bd61262a565b6105c56126c4565b6105d960018060a01b038454163314612ac1565b6001600160a01b038216808452600860205260408420549092906105ff9060ff1661285b565b82845260056020526040842091600983019060ff825460081c166108285760ff859116926001841492835f1461077657946107069260409594927f130e17c5935196febc834a0288602204b102168dc2eb29af027e0be2e92d75bc976107d0935b60038101958654966106a3612710610678898b612933565b04988998600486019361069c61271061069387549485612933565b049c8d94612a66565b9055612a66565b90556106b186600154612a66565b6001556106c087600254612a66565b600255156107155750805461ff00191661010017905586516107019250906106e8888361283a565b600782526614db185cda195960ca1b6020830152612aff565b612964565b9082519182526020820152a280f35b7feb7d7a49847ec491969db21a0e31b234565a9923145a2d1b56a75c9e95825802925060209150600b90600289036107685761075861ffff6103e85b1643612964565b91829101558851908152a2612964565b61075861ffff611388610751565b600285036107b257946107069260409594927f130e17c5935196febc834a0288602204b102168dc2eb29af027e0be2e92d75bc97606493610660565b9392909150600383036107f2577f130e17c5935196febc834a0288602204b102168dc2eb29af027e0be2e92d75bc9486610706936040966103e893610660565b60405162461bcd60e51b815260206004820152600e60248201526d24b73b30b634b2103932b0b9b7b760911b6044820152606490fd5b60405162461bcd60e51b815260206004820152600f60248201526e105b1c9958591e481cdb185cda1959608a1b6044820152606490fd5b5034610251578060031936011261025157602060405168056bc75e2d631000008152f35b50346102515780600319360112610251576020604051621baf808152f35b503461025157806003193601126102515733815260086020526108ca60ff60408320541661285b565b338152600560205260408120600b81018054801561094d57431061091957829182600792550155337f9390b453426557da5ebdc31f19a37753ca04addf656d32f35232211bb2af3f198280a280f35b60405162461bcd60e51b815260206004820152600c60248201526b14dd1a5b1b081a985a5b195960a21b6044820152606490fd5b60405162461bcd60e51b815260206004820152600a602482015269139bdd081a985a5b195960b21b6044820152606490fd5b5034610251578060031936011261025157602060405169152d02c7e14af68000008152f35b503461025157806003193601126102515760206040516a084595161401484a0000008152f35b5034610251576020366003190112610251576001600160a01b036109ec61262a565b1681526005602052604081206008810154908115610a6057610a12600782015483612a66565b92606484029380850460641490151715610a4c57506007610a3583606095612946565b915b01549160405192835260208301526040820152f35b634e487b7160e01b81526011600452602490fd5b600760609391610a37565b5034610251576040366003190112610251576040610a8761262a565b91610a90612640565b9260018060a01b031681526006602052209060018060a01b03165f5260205260a060405f20805490600181015490600281015460046003830154920154926040519485526020850152604084015260608301526080820152f35b50346102515760203660031901126102515760043580825260096020526040822080546001600160a01b03163303610c3c5760038101544210610c05576002018054908115610bcc5783905560405163a9059cbb60e01b81523360048201526024810191909152602081604481866001600160a01b037f0000000000000000000000000000000000000000000000000000000000000000165af18015610bc157610b9a9184916104e857506128f5565b7f5f0db5f3b5ff5dd354ea23f1e5a6af40e5a8aa025310c030274d470f6eeee62f8280a280f35b6040513d85823e3d90fd5b60405162461bcd60e51b8152602060048201526011602482015270105b1c9958591e4818dbdb5c1b195d1959607a1b6044820152606490fd5b60405162461bcd60e51b815260206004820152600f60248201526e5374696c6c20756e626f6e64696e6760881b6044820152606490fd5b60405162461bcd60e51b815260206004820152601060248201526f139bdd081e5bdd5c881c995c5d595cdd60821b6044820152606490fd5b6126f8565b503461025157602036600319011261025157610c9361262a565b610ca760018060a01b038354163314612ac1565b81546001600160a01b0319166001600160a01b039190911617815580f35b5034610251576040366003190112610251576008610ce161262a565b602435610cf860018060a01b038554163314612ac1565b60018060a01b0382169081855283602052610d1960ff60408720541661285b565b81855260056020526040852092610d42612710610d3a600587015485612933565b048093612a66565b918387526007602052610d5a60408820918254612964565b9055600484015415610d8657610d709250612d2b565b43600682015501610d818154612a73565b905580f35b509084526007602052610d9e60408520918254612964565b9055610d70565b5034610251578060031936011261025157604051806020600c5491828152018091600c85527fdf6966c971051c3d54ec59162606531493a51404a002842f56009d7e5cf4a8c790855b818110610e4e5750505082610e0491038361283a565b604051928392602084019060208552518091526040840192915b818110610e2c575050500390f35b82516001600160a01b0316845285945060209384019390920191600101610e1e565b82546001600160a01b0316845260209093019260019283019201610dee565b50346102515780600319360112610251576040517f00000000000000000000000000000000000000000000000000000000000000006001600160a01b03168152602090f35b5034610fe7576040366003190112610fe757610ecc61262a565b602435908115158203610fe757610eed60018060a01b035f54163314612ac1565b6001600160a01b03165f81815260086020526040902054610f109060ff1661285b565b805f52600560205260405f2091610f3c575b5060088101610f318154612a73565b905560064391015580f35b60078201610f4a8154612a73565b8091556032811180610fff575b610f62575b50610f22565b606481029080820460641490151715610feb57610f86600591600885015490612946565b11610f92575b80610f5c565b303b15610fe75760405190637101190760e11b82526004820152600260248201525f8160448183305af18015610fdc5715610f8c57610fd49192505f9061283a565b5f905f610f8c565b6040513d5f823e3d90fd5b5f80fd5b634e487b7160e01b5f52601160045260245ffd5b506103e8600884015411610f57565b34610fe7575f366003190112610fe7576020600154604051908152f35b34610fe7575f366003190112610fe7576020600254604051908152f35b34610fe7575f366003190112610fe757604060035460045482519182526020820152f35b34610fe7575f366003190112610fe7576020600a54604051908152f35b34610fe7575f366003190112610fe7575f546040516001600160a01b039091168152602090f35b34610fe7576040366003190112610fe7576110c961262a565b602435335f52600660205260405f2060018060a01b0383165f5260205260405f2091825482811061124d5760018060a01b03821690815f52600560205260405f2090611139600187019182546111328861112c846111278584612933565b612946565b93612a66565b8955612a66565b90556003850161114a858254612964565b9055621baf804201804211610feb576004600392828261124899015501611172868254612a66565b905561118085600254612a66565b600255604051926111908461281f565b33808552602080860192835260408087018981526060808901968752600a80545f9081526009865284902099518a546001600160a01b03199081166001600160a01b03928316178c55975160018c01805490991690821617909755915160028a01559551969097019590955594548451918252959091169381019390935290820193909352909182917fb406cfdb2ad566e19c57bec56b862ffcc1d02dabbdf06e2b772d3f8735d411e391819081015b0390a2612a73565b600a55005b60405162461bcd60e51b815260206004820152601760248201527f496e73756666696369656e742064656c65676174696f6e0000000000000000006044820152606490fd5b34610fe7576020366003190112610fe7576001600160a01b036112b361262a565b16805f52600560205260ff600960405f20015416806112fa575b806112e0575b6020906040519015158152f35b505f5260056020526020600b60405f2001544310156112d3565b50805f52600560205260ff600960405f20015460081c16156112cd565b34610fe7575f366003190112610fe757335f52600760205260405f205480156113ff57335f8181526007602090815260408083208390555163a9059cbb60e01b815260048101939093526024830184905290829060449082906001600160a01b037f0000000000000000000000000000000000000000000000000000000000000000165af18015610fdc576113b2915f916113e057506128f5565b6040519081527ffc30cddea38e2bf4d6ea7d3f9ed3b6ad7f176419f4963bd81318067a4aee73fe60203392a2005b6113f9915060203d60201161051057610502818361283a565b83610484565b60405162461bcd60e51b81526020600482015260126024820152714e6f2070656e64696e67207265776172647360701b6044820152606490fd5b34610fe7576020366003190112610fe7576004355f526009602052608060405f2060018060a01b038154169060018060a01b03600182015416906003600282015491015491604051938452602084015260408301526060820152f35b34610fe7576020366003190112610fe7576001600160a01b036114b661262a565b165f526007602052602060405f2054604051908152f35b34610fe7575f366003190112610fe75760206040516127108152f35b34610fe75760a0366003190112610fe7576004356001600160401b038111610fe757611519903690600401612697565b906115226126c4565b9160443592606435906084356001600160401b038111610fe75761154a903690600401612697565b9091335f52600860205260ff60405f205416611b055761157669152d02c7e14af6800000881015612a25565b61158d6a084595161401484a000000881115612a81565b6107d08411611aca5760ff1691600183148015611ac0575b15611a87578415611a4d5760646003541015611a0f576040516323b872dd60e01b815233600482015230602482015260448101889052916020836064815f6001600160a01b037f0000000000000000000000000000000000000000000000000000000000000000165af1928315610fdc576116999361162a915f916119f057506128f5565b6040519461163786612803565b33865261164536888a612971565b946020870195865260408701528860608701525f608087015260a08601524360c08601525f60e08601525f6101008601525f6101208601525f610140860152436101608601525f6101808601523691612971565b6101a08301908152335f908152600560205260409020835181546001600160a01b0319166001600160a01b039190911617815591518051919391906001600160401b0382116118f1576116fc826116f3600187015461272f565b600187016129b6565b602090601f831160011461197e578261018093600c969593611733935f92611973575b50508160011b915f199060031b1c19161790565b60018401555b60ff60408201511660ff60028501911660ff19825416179055606081015160038401556080810151600484015560a0810151600584015560c0810151600684015560e08101516007840155610100810151600884015560098301610120820151151560ff80198354169116178155610140820151151561ff0082549160081b169061ff001916179055610160810151600a8401550151600b8201550190518051906001600160401b0382116118f1576117fc826117f6855461272f565b856129b6565b602090601f83116001146119105761182a92915f91836119055750508160011b915f199060031b1c19161790565b90555b335f52600860205260405f20600160ff19825416179055600b54600160401b8110156118f1577f43deb9ac9017df0155039cbf944a7fe26a0272ef162f6e4afd4b83ee8ce4a521926118ab61188d8360016118da9501600b55600b612682565b81546001600160a01b0360039290921b91821b19163390911b179055565b6118b6600354612a73565b6003556118c585600154612964565b60015560405192604084526040840191612a05565b9260208201528033930390a26118ef33612c5c565b005b634e487b7160e01b5f52604160045260245ffd5b01519050878061171f565b90601f19831691845f52815f20925f5b81811061195b5750908460019594939210611943575b505050811b01905561182d565b01515f1960f88460031b161c19169055868080611936565b92936020600181928786015181550195019301611920565b015190508b8061171f565b90600185015f52805f20915f5b601f19851681106119d8575092600c9594926001926101809583601f198116106119c0575b505050811b016001840155611739565b01515f1960f88460031b161c191690558a80806119b0565b9192602060018192868501518155019401920161198b565b611a09915060203d60201161051057610502818361283a565b8a610484565b60405162461bcd60e51b815260206004820152601660248201527513585e081d985b1a59185d1bdc9cc81c995858da195960521b6044820152606490fd5b60405162461bcd60e51b8152602060048201526012602482015271496e76616c6964207075626c6963206b657960701b6044820152606490fd5b60405162461bcd60e51b8152602060048201526011602482015270496e76616c696420616c676f726974686d60781b6044820152606490fd5b50600283146115a5565b60405162461bcd60e51b8152602060048201526013602482015272086dedadad2e6e6d2dedc40e8dede40d0d2ced606b1b6044820152606490fd5b60405162461bcd60e51b8152602060048201526012602482015271105b1c9958591e481c9959da5cdd195c995960721b6044820152606490fd5b34610fe7575f366003190112610fe75760206040516103e88152f35b34610fe7576020366003190112610fe757600435335f526008602052611b8760ff60405f20541661285b565b335f526005602052600360405f200190611bae818354611ba982821015612a25565b612a66565b69152d02c7e14af6800000811080611d28575b611ced5715611cb5575b621baf80420190814211610feb576112489261124092600360405191611bf08361281f565b338084526020808501918252604080860188815260608701948552600a545f90815260099093529120945185546001600160a01b03199081166001600160a01b039283161787559251600187018054909416911617909155516002840155519101558054611c5f908390612a66565b9055611c6d81600154612a66565b600155600a5460408051338082526020820152908101929092529182917fb406cfdb2ad566e19c57bec56b862ffcc1d02dabbdf06e2b772d3f8735d411e39181906060820190565b611ce8604051611cc660408261283a565b600f81526e119d5b1b081dda5d1a191c985dd85b608a1b602082015233612aff565b611bcb565b60405162461bcd60e51b815260206004820152601360248201527242656c6f77206d696e696d756d207374616b6560681b6044820152606490fd5b50801515611bc1565b34610fe7575f366003190112610fe7576020600454604051908152f35b34610fe7576020366003190112610fe757611d6761262a565b604051611d7381612803565b5f81526020810160609052604081015f9052606081015f9052608081015f905260a081015f905260c081015f905260e081015f905261010081015f905261012081015f905261014081015f905261016081015f905261018081015f90526101a00160609052600160a01b60019003165f52600560205260405f20604051611df981612803565b81546001600160a01b031681526040519182611e188160018401612767565b03611e23908461283a565b60208201928352600281015460ff169060408301918252600381015460608401908152600482015460808501908152600583015460a0860190815260068401549060c08701918252600785015460e0880190815260088601549061010089019182526009870154936101208a019360ff8616151585526101408b019560081c60ff1615158652600a890154966101608c01978852600b8a0154986101808d01998a5260405180600c819d0190611ed891612767565b03611ee3908c61283a565b6101a08d019a8b52604051809e819e60208352600160a01b60019003905116602083015251604082016101c090526101e08201611f1f916126d4565b9c5160ff1690606001525160808d01525160a08c01525160c08b01525160e08a0152516101008901525161012088015251151561014087015251151561016086015251610180850152516101a08401525190601f19838203016101c084015261037f916126d4565b34610fe7576060366003190112610fe7576004356001600160401b038111610fe757611fb7903690600401612697565b611fbf6126c4565b916044356001600160401b038111610fe757611fdf903690600401612697565b335f526008602052611ff760ff60405f20541661285b565b335f52600560205261203760405f209260018401926120246040518061201d8188612767565b039061283a565b61202f368888612971565b503691612971565b5115612180576001600160401b0384116118f15761205f84612059835461272f565b836129b6565b5f601f85116001146120f25792600260ff936120d8936120b788807fd03262b7511cc720d0b1a79a0222064e52d0e0ef4f0557e092b617ddb3d088ce9a995f916120e7575b508160011b915f199060031b1c19161790565b90555b01838716841982541617905560405193604085526040850191612a05565b931660208201528033930390a2005b90508601358c6120a4565b601f19851690825f5260205f20915f5b8181106121685750936120d8938796936002937fd03262b7511cc720d0b1a79a0222064e52d0e0ef4f0557e092b617ddb3d088ce9960ff981061214f575b5050600187811b0190556120ba565b8501355f1960038a901b60f8161c191690558980612140565b9192602060018192868a013581550194019201612102565b60405162461bcd60e51b815260206004820152600d60248201526c24b73b30b634b210383937b7b360991b6044820152606490fd5b34610fe7576040366003190112610fe7576121ce61262a565b6121d6612640565b905f60806040516121e6816127e8565b828152826020820152826040820152826060820152015260018060a01b03165f52600660205260405f209060018060a01b03165f5260205260a060405f20604051612230816127e8565b81549182825260018101546020830190815260028201549060408401918252608060046003850154946060870195865201549401938452604051948552516020850152516040840152516060830152516080820152f35b34610fe7576020366003190112610fe757600435600c54811015610fe7576122b0602091612656565b905460405160039290921b1c6001600160a01b03168152f35b34610fe7575f366003190112610fe7576020600354604051908152f35b34610fe7576040366003190112610fe7576122ff61262a565b6001600160a01b03165f818152600560205260409020600901546024359060ff161561253c57815f52600560205261234460ff600960405f20015460081c161561289d565b815f526005602052600b60405f20015443106125045768056bc75e2d6310000081106124bf576040516323b872dd60e01b8152336004820152306024820152604481018290526020816064815f6001600160a01b037f0000000000000000000000000000000000000000000000000000000000000000165af18015610fdc576123d3915f916124a057506128f5565b815f52600560205260405f20335f52600660205260405f20835f5260205260405f20600483920191825480151580612493575b61247a575b50612417848354612964565b825561242860018301918254612964565b905560024391015561243b828254612964565b905561244981600254612964565b6002556040519081527f52467f14b857734001c77e6f125dac41b45798837c9fc9adfe3a5b394c77a0e960203392a3005b61248d9150611127600184015486612933565b8561240b565b5060018301541515612406565b6124b9915060203d60201161051057610502818361283a565b84610484565b60405162461bcd60e51b815260206004820152601860248201527f42656c6f77206d696e696d756d2064656c65676174696f6e00000000000000006044820152606490fd5b60405162461bcd60e51b815260206004820152601060248201526f15985b1a59185d1bdc881a985a5b195960821b6044820152606490fd5b60405162461bcd60e51b81526020600482015260146024820152732737ba1030b1ba34bb32903b30b634b230ba37b960611b6044820152606490fd5b34610fe7576020366003190112610fe757600435335f5260086020526125a460ff60405f20541661285b565b6107d081116125f557335f526005602052600560405f200190808254925560405191825260208201527f6e500db30ce535d38852e318f333e9be41a3fec6c65d234ebb06203c896db9a560403392a2005b60405162461bcd60e51b815260206004820152600d60248201526c0a4c2e8ca40e8dede40d0d2ced609b1b6044820152606490fd5b600435906001600160a01b0382168203610fe757565b602435906001600160a01b0382168203610fe757565b600c5481101561266e57600c5f5260205f2001905f90565b634e487b7160e01b5f52603260045260245ffd5b805482101561266e575f5260205f2001905f90565b9181601f84011215610fe7578235916001600160401b038311610fe75760208381860195010111610fe757565b6024359060ff82168203610fe757565b805180835260209291819084018484015e5f828201840152601f01601f1916010190565b34610fe7575f366003190112610fe75760206040516107d08152f35b34610fe7575f366003190112610fe757602060405160648152f35b90600182811c9216801561275d575b602083101461274957565b634e487b7160e01b5f52602260045260245ffd5b91607f169161273e565b5f92918154916127768361272f565b80835292600181169081156127cb575060011461279257505050565b5f9081526020812093945091925b8383106127b1575060209250010190565b6001816020929493945483858701015201910191906127a0565b915050602093945060ff929192191683830152151560051b010190565b60a081019081106001600160401b038211176118f157604052565b6101c081019081106001600160401b038211176118f157604052565b608081019081106001600160401b038211176118f157604052565b90601f801991011681019081106001600160401b038211176118f157604052565b1561286257565b60405162461bcd60e51b815260206004820152601360248201527215985b1a59185d1bdc881b9bdd08199bdd5b99606a1b6044820152606490fd5b156128a457565b60405162461bcd60e51b815260206004820152601160248201527015985b1a59185d1bdc881cdb185cda1959607a1b6044820152606490fd5b90816020910312610fe757518015158103610fe75790565b156128fc57565b60405162461bcd60e51b815260206004820152600f60248201526e151c985b9cd9995c8819985a5b1959608a1b6044820152606490fd5b81810292918115918404141715610feb57565b8115612950570490565b634e487b7160e01b5f52601260045260245ffd5b91908201809211610feb57565b9291926001600160401b0382116118f1576040519161299a601f8201601f19166020018461283a565b829481845281830111610fe7578281602093845f960137010152565b601f82116129c357505050565b5f5260205f20906020601f840160051c830193106129fb575b601f0160051c01905b8181106129f0575050565b5f81556001016129e5565b90915081906129dc565b908060209392818452848401375f828201840152601f01601f1916010190565b15612a2c57565b60405162461bcd60e51b8152602060048201526012602482015271496e73756666696369656e74207374616b6560701b6044820152606490fd5b91908203918211610feb57565b5f198114610feb5760010190565b15612a8857565b60405162461bcd60e51b815260206004820152601160248201527045786365656473206d6178207374616b6560781b6044820152606490fd5b15612ac857565b60405162461bcd60e51b815260206004820152600f60248201526e4f6e6c7920676f7665726e616e636560881b6044820152606490fd5b6001600160a01b03165f818152600560205260409020600901805460ff8116612b29575b50505050565b60ff191690555f5b600c5480821015612c545782612b4683612656565b905460039190911b1c6001600160a01b031614612b665750600101612b31565b9192915f19810191908211610feb57612b9c612b84612bc093612656565b905460039190911b1c6001600160a01b031691612656565b81546001600160a01b0393841660039290921b91821b9390911b1916919091179055565b600c548015612c40575f1901612bd581612656565b81549060018060a01b039060031b1b19169055600c555b6004548015610feb575f190160045560405160208082527fec5b695b0c393fd5d21a991d4d510e77cb73982ce6a2a2d991dcf5f56eb7da7a928291612c3491908301906126d4565b0390a25f808080612b23565b634e487b7160e01b5f52603160045260245ffd5b505090612bec565b6001600160a01b0381165f818152600560205260409020600981018054929392909160ff8216159081612d12575b5080612d04575b612c9b5750505050565b60ff19166001179055600c5490600160401b8210156118f157612b9c826001612cc99401600c55600c612682565b612cd4600454612a73565b6004557fb2b8c5f713f27009f7a78ec2167999c472e5ee8bc591102da17bc4a6551236c85f80a25f808080612b23565b5060ff8160081c1615612c91565b69152d02c7e14af680000091506003015410155f612c8a565b6001600160a01b03165f8181526005602052604090206004015415612d64575f526007602052612d6060405f20918254612964565b9055565b505056fea2646970667358221220d3908bed6ec09196968031a871b36f6cf083671db5271dfc14625c9c7197bf4864736f6c634300081e0033","linkReferences":{}},"methodIdentifiers":{"COMMISSION_RATE_PRECISION()":"2f2c3f2e","MAX_COMMISSION_RATE()":"207239c0","MAX_STAKE()":"c98517c5","MAX_VALIDATORS()":"714897df","MIN_DELEGATION()":"e013a625","MIN_STAKE()":"cb1c2b5c","SLASHING_RATE_DOUBLE_SIGN()":"b32da7a5","SLASHING_RATE_DOWNTIME()":"f9d31739","SLASHING_RATE_INVALID_BLOCK()":"299c7233","UNBONDING_PERIOD()":"d9a912ec","activeValidatorCount()":"2340e8d3","activeValidators(uint256)":"14f64c78","addStake(uint256)":"eb4f16b5","claimRewards()":"372500ab","completeUnbonding(uint256)":"bd3169ac","delegate(address,uint256)":"026e402b","delegations(address,address)":"c64814dd","distributeBlockReward(address,uint256)":"aa27256d","getActiveValidators()":"9de70258","getDelegation(address,address)":"15049a5a","getTotalDelegated()":"f2976871","getTotalStaked()":"0917e776","getValidator(address)":"1904bb2e","getValidatorCount()":"7071688a","getValidatorPerformance(address)":"c671b9bc","governance()":"5aa6e675","isValidator(address)":"facd743b","isValidatorActive(address)":"42ad55ac","nextUnbondingId()":"6febeb20","pendingRewards(address)":"31d7a262","qtmToken()":"8f167683","registerValidator(bytes,uint8,uint256,uint256,string)":"2d67e586","slashValidator(address,uint8)":"e202320e","totalDelegated()":"80d04de8","totalStaked()":"817b1cd2","unbondingRequests(uint256)":"326ae8b4","undelegate(address,uint256)":"4d99dd16","unjailValidator()":"ce5cf377","updateCommissionRate(uint256)":"00fa3d50","updateGovernance(address)":"b2561263","updateValidatorKeys(bytes,uint8,bytes)":"15e01c48","updateValidatorPerformance(address,bool)":"8ccdadc2","validatorCount()":"0f43a677","validatorSet(uint256)":"e64808f3","validators(address)":"fa52c7d8","withdrawStake(uint256)":"25d5971f"},"id":3}