{"abi":[{"type":"constructor","inputs":[{"name":"_name","type":"string","internalType":"string"},{"name":"_symbol","type":"string","internalType":"string"},{"name":"_initialSupply","type":"uint256","internalType":"uint256"}],"stateMutability":"nonpayable"},{"type":"function","name":"addMinter","inputs":[{"name":"minter","type":"address","internalType":"address"}],"outputs":[],"stateMutability":"nonpayable"},{"type":"function","name":"allowance","inputs":[{"name":"tokenOwner","type":"address","internalType":"address"},{"name":"spender","type":"address","internalType":"address"}],"outputs":[{"name":"","type":"uint256","internalType":"uint256"}],"stateMutability":"view"},{"type":"function","name":"approve","inputs":[{"name":"spender","type":"address","internalType":"address"},{"name":"amount","type":"uint256","internalType":"uint256"}],"outputs":[{"name":"","type":"bool","internalType":"bool"}],"stateMutability":"nonpayable"},{"type":"function","name":"balanceOf","inputs":[{"name":"account","type":"address","internalType":"address"}],"outputs":[{"name":"","type":"uint256","internalType":"uint256"}],"stateMutability":"view"},{"type":"function","name":"burn","inputs":[{"name":"amount","type":"uint256","internalType":"uint256"}],"outputs":[{"name":"","type":"bool","internalType":"bool"}],"stateMutability":"nonpayable"},{"type":"function","name":"decimals","inputs":[],"outputs":[{"name":"","type":"uint8","internalType":"uint8"}],"stateMutability":"view"},{"type":"function","name":"mint","inputs":[{"name":"to","type":"address","internalType":"address"},{"name":"amount","type":"uint256","internalType":"uint256"}],"outputs":[{"name":"","type":"bool","internalType":"bool"}],"stateMutability":"nonpayable"},{"type":"function","name":"minters","inputs":[{"name":"","type":"address","internalType":"address"}],"outputs":[{"name":"","type":"bool","internalType":"bool"}],"stateMutability":"view"},{"type":"function","name":"name","inputs":[],"outputs":[{"name":"","type":"string","internalType":"string"}],"stateMutability":"view"},{"type":"function","name":"owner","inputs":[],"outputs":[{"name":"","type":"address","internalType":"address"}],"stateMutability":"view"},{"type":"function","name":"removeMinter","inputs":[{"name":"minter","type":"address","internalType":"address"}],"outputs":[],"stateMutability":"nonpayable"},{"type":"function","name":"symbol","inputs":[],"outputs":[{"name":"","type":"string","internalType":"string"}],"stateMutability":"view"},{"type":"function","name":"totalSupply","inputs":[],"outputs":[{"name":"","type":"uint256","internalType":"uint256"}],"stateMutability":"view"},{"type":"function","name":"transfer","inputs":[{"name":"to","type":"address","internalType":"address"},{"name":"amount","type":"uint256","internalType":"uint256"}],"outputs":[{"name":"","type":"bool","internalType":"bool"}],"stateMutability":"nonpayable"},{"type":"function","name":"transferFrom","inputs":[{"name":"from","type":"address","internalType":"address"},{"name":"to","type":"address","internalType":"address"},{"name":"amount","type":"uint256","internalType":"uint256"}],"outputs":[{"name":"","type":"bool","internalType":"bool"}],"stateMutability":"nonpayable"},{"type":"function","name":"transferOwnership","inputs":[{"name":"newOwner","type":"address","internalType":"address"}],"outputs":[],"stateMutability":"nonpayable"},{"type":"event","name":"Approval","inputs":[{"name":"owner","type":"address","indexed":true,"internalType":"address"},{"name":"spender","type":"address","indexed":true,"internalType":"address"},{"name":"value","type":"uint256","indexed":false,"internalType":"uint256"}],"anonymous":false},{"type":"event","name":"MinterAdded","inputs":[{"name":"minter","type":"address","indexed":true,"internalType":"address"}],"anonymous":false},{"type":"event","name":"MinterRemoved","inputs":[{"name":"minter","type":"address","indexed":true,"internalType":"address"}],"anonymous":false},{"type":"event","name":"OwnershipTransferred","inputs":[{"name":"previousOwner","type":"address","indexed":true,"internalType":"address"},{"name":"newOwner","type":"address","indexed":true,"internalType":"address"}],"anonymous":false},{"type":"event","name":"Transfer","inputs":[{"name":"from","type":"address","indexed":true,"internalType":"address"},{"name":"to","type":"address","indexed":true,"internalType":"address"},{"name":"value","type":"uint256","indexed":false,"internalType":"uint256"}],"anonymous":false}],"bytecode":{"object":"0x60806040523461039a57610f44803803806100198161039e565b92833981019060608183031261039a5780516001600160401b03811161039a57826100459183016103c3565b60208201519092906001600160401b03811161039a576040916100699184016103c3565b9101516002805460ff1916601217905582516001600160401b0381116102ae575f54600181811c91168015610390575b602082101461029057601f811161032e575b506020601f82116001146102cd57819293945f926102c2575b50508160011b915f199060031b1c1916175f555b81516001600160401b0381116102ae57600154600181811c911680156102a4575b602082101461029057601f811161022d575b50602092601f82116001146101cc57928192935f926101c1575b50508160011b915f199060031b1c1916176001555b600480546001600160a01b031916339081179091555f908152600560205260409020805460ff191660011790558061017c575b604051610b2f90816104158239f35b80600355335f5260066020528060405f20556040519081525f7fddf252ad1be2c89b69c2b068fc378daa952ba7f163c4a11628f55a4df523b3ef60203393a35f61016d565b015190505f80610125565b601f1982169360015f52805f20915f5b86811061021557508360019596106101fd575b505050811b0160015561013a565b01515f1960f88460031b161c191690555f80806101ef565b919260206001819286850151815501940192016101dc565b60015f527fb10e2d527612073b26eecdfd717e6a320cf44b4afac2b0732d9fcbe2b7fa0cf6601f830160051c81019160208410610286575b601f0160051c01905b81811061027b575061010b565b5f815560010161026e565b9091508190610265565b634e487b7160e01b5f52602260045260245ffd5b90607f16906100f9565b634e487b7160e01b5f52604160045260245ffd5b015190505f806100c4565b601f198216905f8052805f20915f5b818110610316575095836001959697106102fe575b505050811b015f556100d8565b01515f1960f88460031b161c191690555f80806102f1565b9192602060018192868b0151815501940192016102dc565b5f80527f290decd9548b62a8d60345a988386fc84ba6bc95484008f6362f93160ef3e563601f830160051c81019160208410610386575b601f0160051c01905b81811061037b57506100ab565b5f815560010161036e565b9091508190610365565b90607f1690610099565b5f80fd5b6040519190601f01601f191682016001600160401b038111838210176102ae57604052565b81601f8201121561039a578051906001600160401b0382116102ae576103f2601f8301601f191660200161039e565b928284526020838301011161039a57815f9260208093018386015e830101529056fe60806040526004361015610011575f80fd5b5f3560e01c806306fdde0314610718578063095ea7b3146106f257806318160ddd146106d557806323b872dd146106175780633092afd5146105a5578063313ce5671461058557806340c10f191461049157806342966c681461040557806370a08231146103cd5780638da5cb5b146103a557806395d89b4114610287578063983b2d5614610208578063a9059cbb146101d7578063dd62ed3e14610187578063f2fde38b1461010a5763f46eccc4146100c9575f80fd5b34610106576020366003190112610106576001600160a01b036100ea610814565b165f526005602052602060ff60405f2054166040519015158152f35b5f80fd5b3461010657602036600319011261010657610123610814565b6004546001600160a01b0381169161013c338414610861565b6001600160a01b0316918290610153821515610899565b7f8be0079c531659141344cd1fd0a4f28419497f9722a3daafe3b4186f6b6457e05f80a36001600160a01b03191617600455005b34610106576040366003190112610106576101a0610814565b6101a861082a565b6001600160a01b039182165f908152600760209081526040808320949093168252928352819020549051908152f35b34610106576040366003190112610106576101fd6101f3610814565b60243590336109f6565b602060405160018152f35b3461010657602036600319011261010657610221610814565b61023660018060a01b03600454163314610861565b6001600160a01b031661024a811515610899565b805f52600560205260405f20600160ff198254161790557f6ae172837ea30b801fbfcdd4108aa1d5bf8ff775444fd70256b44e6bf3dfc3f65f80a2005b34610106575f366003190112610106576040515f6001548060011c9060018116801561039b575b6020831081146103875782855290811561036b5750600114610315575b50819003601f01601f191681019067ffffffffffffffff82118183101761030157604082905281906102fd90826107ea565b0390f35b634e487b7160e01b5f52604160045260245ffd5b60015f9081529091507fb10e2d527612073b26eecdfd717e6a320cf44b4afac2b0732d9fcbe2b7fa0cf65b828210610355575060209150820101826102cb565b6001816020925483858801015201910190610340565b90506020925060ff191682840152151560051b820101826102cb565b634e487b7160e01b5f52602260045260245ffd5b91607f16916102ae565b34610106575f366003190112610106576004546040516001600160a01b039091168152602090f35b34610106576020366003190112610106576001600160a01b036103ee610814565b165f526006602052602060405f2054604051908152f35b34610106576020366003190112610106575f600435338252600660205261043281604084205410156108e4565b338252600660205260408220610449828254610840565b905561045781600354610840565b6003556040519081527fddf252ad1be2c89b69c2b068fc378daa952ba7f163c4a11628f55a4df523b3ef60203392a3602060405160018152f35b34610106576040366003190112610106576104aa610814565b60243590335f52600560205260ff60405f2054168015610571575b1561053f576001600160a01b0316905f907fddf252ad1be2c89b69c2b068fc378daa952ba7f163c4a11628f55a4df523b3ef90602090610506851515610899565b610512816003546108d7565b600355848452600682526040842061052b8282546108d7565b9055604051908152a3602060405160018152f35b60405162461bcd60e51b815260206004820152600a6024820152692737ba1036b4b73a32b960b11b6044820152606490fd5b506004546001600160a01b031633146104c5565b34610106575f36600319011261010657602060ff60025416604051908152f35b34610106576020366003190112610106576105be610814565b6105d360018060a01b03600454163314610861565b6001600160a01b03165f818152600560205260408120805460ff191690557fe94479a9f7e1952cc78f2d6baab678adc1b772d936c6583def489e524cb666929080a2005b3461010657606036600319011261010657610630610814565b61063861082a565b6001600160a01b0382165f90815260076020908152604080832033845290915290205491604435919060018401610674575b6101fd93506109f6565b8284106106975761069261068b846101fd96610840565b3383610927565b61066a565b60405162461bcd60e51b8152602060048201526016602482015275496e73756666696369656e7420616c6c6f77616e636560501b6044820152606490fd5b34610106575f366003190112610106576020600354604051908152f35b34610106576040366003190112610106576101fd61070e610814565b6024359033610927565b34610106575f366003190112610106576040515f5f548060011c906001811680156107e0575b6020831081146103875782855290811561036b575060011461078c5750819003601f01601f191681019067ffffffffffffffff82118183101761030157604082905281906102fd90826107ea565b5f8080529091507f290decd9548b62a8d60345a988386fc84ba6bc95484008f6362f93160ef3e5635b8282106107ca575060209150820101826102cb565b60018160209254838588010152019101906107b5565b91607f169161073e565b602060409281835280519182918282860152018484015e5f828201840152601f01601f1916010190565b600435906001600160a01b038216820361010657565b602435906001600160a01b038216820361010657565b9190820391821161084d57565b634e487b7160e01b5f52601160045260245ffd5b1561086857565b60405162461bcd60e51b81526020600482015260096024820152682737ba1037bbb732b960b91b6044820152606490fd5b156108a057565b60405162461bcd60e51b815260206004820152600f60248201526e496e76616c6964206164647265737360881b6044820152606490fd5b9190820180921161084d57565b156108eb57565b60405162461bcd60e51b8152602060048201526014602482015273496e73756666696369656e742062616c616e636560601b6044820152606490fd5b6001600160a01b03169081156109c1576001600160a01b031691821561098a5760207f8c5be1e5ebec7d5bd14f71427d1e84f3dd0314c0f7b2291e5b200ac8c7c3b92591835f526007825260405f20855f5282528060405f2055604051908152a3565b60405162461bcd60e51b815260206004820152600f60248201526e24b73b30b634b21039b832b73232b960891b6044820152606490fd5b60405162461bcd60e51b815260206004820152600d60248201526c24b73b30b634b21037bbb732b960991b6044820152606490fd5b6001600160a01b0316908115610ac3576001600160a01b0316918215610a8a5760207fddf252ad1be2c89b69c2b068fc378daa952ba7f163c4a11628f55a4df523b3ef91835f5260068252610a518160405f205410156108e4565b835f526006825260405f20610a67828254610840565b9055845f526006825260405f20610a7f8282546108d7565b9055604051908152a3565b60405162461bcd60e51b8152602060048201526011602482015270125b9d985b1a59081c9958da5c1a595b9d607a1b6044820152606490fd5b60405162461bcd60e51b815260206004820152600e60248201526d24b73b30b634b21039b2b73232b960911b6044820152606490fdfea264697066735822122074124fc58caba180179702542738179ab9b212d0aa432e64f57ac7ce61d43bcd64736f6c634300081e0033","linkReferences":{}},"methodIdentifiers":{"addMinter(address)":"983b2d56","allowance(address,address)":"dd62ed3e","approve(address,uint256)":"095ea7b3","balanceOf(address)":"70a08231","burn(uint256)":"42966c68","decimals()":"313ce567","mint(address,uint256)":"40c10f19","minters(address)":"f46eccc4","name()":"06fdde03","owner()":"8da5cb5b","removeMinter(address)":"3092afd5","symbol()":"95d89b41","totalSupply()":"18160ddd","transfer(address,uint256)":"a9059cbb","transferFrom(address,address,uint256)":"23b872dd","transferOwnership(address)":"f2fde38b"},"id":0}