{"abi":[{"type":"constructor","inputs":[{"name":"_name","type":"string","internalType":"string"},{"name":"_symbol","type":"string","internalType":"string"},{"name":"_initialSupply","type":"uint256","internalType":"uint256"}],"stateMutability":"nonpayable"},{"type":"function","name":"addMinter","inputs":[{"name":"minter","type":"address","internalType":"address"}],"outputs":[],"stateMutability":"nonpayable"},{"type":"function","name":"allowance","inputs":[{"name":"tokenOwner","type":"address","internalType":"address"},{"name":"spender","type":"address","internalType":"address"}],"outputs":[{"name":"","type":"uint256","internalType":"uint256"}],"stateMutability":"view"},{"type":"function","name":"approve","inputs":[{"name":"spender","type":"address","internalType":"address"},{"name":"amount","type":"uint256","internalType":"uint256"}],"outputs":[{"name":"","type":"bool","internalType":"bool"}],"stateMutability":"nonpayable"},{"type":"function","name":"balanceOf","inputs":[{"name":"account","type":"address","internalType":"address"}],"outputs":[{"name":"","type":"uint256","internalType":"uint256"}],"stateMutability":"view"},{"type":"function","name":"burn","inputs":[{"name":"amount","type":"uint256","internalType":"uint256"}],"outputs":[{"name":"","type":"bool","internalType":"bool"}],"stateMutability":"nonpayable"},{"type":"function","name":"decimals","inputs":[],"outputs":[{"name":"","type":"uint8","internalType":"uint8"}],"stateMutability":"view"},{"type":"function","name":"mint","inputs":[{"name":"to","type":"address","internalType":"address"},{"name":"amount","type":"uint256","internalType":"uint256"}],"outputs":[{"name":"","type":"bool","internalType":"bool"}],"stateMutability":"nonpayable"},{"type":"function","name":"minters","inputs":[{"name":"","type":"address","internalType":"address"}],"outputs":[{"name":"","type":"bool","internalType":"bool"}],"stateMutability":"view"},{"type":"function","name":"name","inputs":[],"outputs":[{"name":"","type":"string","internalType":"string"}],"stateMutability":"view"},{"type":"function","name":"owner","inputs":[],"outputs":[{"name":"","type":"address","internalType":"address"}],"stateMutability":"view"},{"type":"function","name":"removeMinter","inputs":[{"name":"minter","type":"address","internalType":"address"}],"outputs":[],"stateMutability":"nonpayable"},{"type":"function","name":"symbol","inputs":[],"outputs":[{"name":"","type":"string","internalType":"string"}],"stateMutability":"view"},{"type":"function","name":"totalSupply","inputs":[],"outputs":[{"name":"","type":"uint256","internalType":"uint256"}],"stateMutability":"view"},{"type":"function","name":"transfer","inputs":[{"name":"to","type":"address","internalType":"address"},{"name":"amount","type":"uint256","internalType":"uint256"}],"outputs":[{"name":"","type":"bool","internalType":"bool"}],"stateMutability":"nonpayable"},{"type":"function","name":"transferFrom","inputs":[{"name":"from","type":"address","internalType":"address"},{"name":"to","type":"address","internalType":"address"},{"name":"amount","type":"uint256","internalType":"uint256"}],"outputs":[{"name":"","type":"bool","internalType":"bool"}],"stateMutability":"nonpayable"},{"type":"function","name":"transferOwnership","inputs":[{"name":"newOwner","type":"address","internalType":"address"}],"outputs":[],"stateMutability":"nonpayable"},{"type":"event","name":"Approval","inputs":[{"name":"owner","type":"address","indexed":true,"internalType":"address"},{"name":"spender","type":"address","indexed":true,"internalType":"address"},{"name":"value","type":"uint256","indexed":false,"internalType":"uint256"}],"anonymous":false},{"type":"event","name":"MinterAdded","inputs":[{"name":"minter","type":"address","indexed":true,"internalType":"address"}],"anonymous":false},{"type":"event","name":"MinterRemoved","inputs":[{"name":"minter","type":"address","indexed":true,"internalType":"address"}],"anonymous":false},{"type":"event","name":"OwnershipTransferred","inputs":[{"name":"previousOwner","type":"address","indexed":true,"internalType":"address"},{"name":"newOwner","type":"address","indexed":true,"internalType":"address"}],"anonymous":false},{"type":"event","name":"Transfer","inputs":[{"name":"from","type":"address","indexed":true,"internalType":"address"},{"name":"to","type":"address","indexed":true,"internalType":"address"},{"name":"value","type":"uint256","indexed":false,"internalType":"uint256"}],"anonymous":false}],"bytecode":{"object":"0x6080604052601260025f6101000a81548160ff021916908360ff16021790555034801561002a575f5ffd5b506040516121c53803806121c5833981810160405281019061004c919061033f565b825f908161005a91906105ce565b50816001908161006a91906105ce565b503360045f6101000a81548173ffffffffffffffffffffffffffffffffffffffff021916908373ffffffffffffffffffffffffffffffffffffffff160217905550600160055f3373ffffffffffffffffffffffffffffffffffffffff1673ffffffffffffffffffffffffffffffffffffffff1681526020019081526020015f205f6101000a81548160ff0219169083151502179055505f8111156101b757806003819055508060065f3373ffffffffffffffffffffffffffffffffffffffff1673ffffffffffffffffffffffffffffffffffffffff1681526020019081526020015f20819055503373ffffffffffffffffffffffffffffffffffffffff165f73ffffffffffffffffffffffffffffffffffffffff167fddf252ad1be2c89b69c2b068fc378daa952ba7f163c4a11628f55a4df523b3ef836040516101ae91906106ac565b60405180910390a35b5050506106c5565b5f604051905090565b5f5ffd5b5f5ffd5b5f5ffd5b5f5ffd5b5f601f19601f8301169050919050565b7f4e487b71000000000000000000000000000000000000000000000000000000005f52604160045260245ffd5b61021e826101d8565b810181811067ffffffffffffffff8211171561023d5761023c6101e8565b5b80604052505050565b5f61024f6101bf565b905061025b8282610215565b919050565b5f67ffffffffffffffff82111561027a576102796101e8565b5b610283826101d8565b9050602081019050919050565b8281835e5f83830152505050565b5f6102b06102ab84610260565b610246565b9050828152602081018484840111156102cc576102cb6101d4565b5b6102d7848285610290565b509392505050565b5f82601f8301126102f3576102f26101d0565b5b815161030384826020860161029e565b91505092915050565b5f819050919050565b61031e8161030c565b8114610328575f5ffd5b50565b5f8151905061033981610315565b92915050565b5f5f5f60608486031215610356576103556101c8565b5b5f84015167ffffffffffffffff811115610373576103726101cc565b5b61037f868287016102df565b935050602084015167ffffffffffffffff8111156103a05761039f6101cc565b5b6103ac868287016102df565b92505060406103bd8682870161032b565b9150509250925092565b5f81519050919050565b7f4e487b71000000000000000000000000000000000000000000000000000000005f52602260045260245ffd5b5f600282049050600182168061041557607f821691505b602082108103610428576104276103d1565b5b50919050565b5f819050815f5260205f209050919050565b5f6020601f8301049050919050565b5f82821b905092915050565b5f6008830261048a7fffffffffffffffffffffffffffffffffffffffffffffffffffffffffffffffff8261044f565b610494868361044f565b95508019841693508086168417925050509392505050565b5f819050919050565b5f6104cf6104ca6104c58461030c565b6104ac565b61030c565b9050919050565b5f819050919050565b6104e8836104b5565b6104fc6104f4826104d6565b84845461045b565b825550505050565b5f5f905090565b610513610504565b61051e8184846104df565b505050565b5b81811015610541576105365f8261050b565b600181019050610524565b5050565b601f821115610586576105578161042e565b61056084610440565b8101602085101561056f578190505b61058361057b85610440565b830182610523565b50505b505050565b5f82821c905092915050565b5f6105a65f198460080261058b565b1980831691505092915050565b5f6105be8383610597565b9150826002028217905092915050565b6105d7826103c7565b67ffffffffffffffff8111156105f0576105ef6101e8565b5b6105fa82546103fe565b610605828285610545565b5f60209050601f831160018114610636575f8415610624578287015190505b61062e85826105b3565b865550610695565b601f1984166106448661042e565b5f5b8281101561066b57848901518255600182019150602085019450602081019050610646565b868310156106885784890151610684601f891682610597565b8355505b6001600288020188555050505b505050505050565b6106a68161030c565b82525050565b5f6020820190506106bf5f83018461069d565b92915050565b611af3806106d25f395ff3fe608060405234801561000f575f5ffd5b50600436106100fe575f3560e01c806370a0823111610095578063a9059cbb11610064578063a9059cbb146102c0578063dd62ed3e146102f0578063f2fde38b14610320578063f46eccc41461033c576100fe565b806370a08231146102385780638da5cb5b1461026857806395d89b4114610286578063983b2d56146102a4576100fe565b80633092afd5116100d15780633092afd51461019e578063313ce567146101ba57806340c10f19146101d857806342966c6814610208576100fe565b806306fdde0314610102578063095ea7b31461012057806318160ddd1461015057806323b872dd1461016e575b5f5ffd5b61010a61036c565b604051610117919061139b565b60405180910390f35b61013a6004803603810190610135919061144c565b6103f7565b60405161014791906114a4565b60405180910390f35b610158610412565b60405161016591906114cc565b60405180910390f35b610188600480360381019061018391906114e5565b61041b565b60405161019591906114a4565b60405180910390f35b6101b860048036038101906101b39190611535565b610535565b005b6101c261065e565b6040516101cf919061157b565b60405180910390f35b6101f260048036038101906101ed919061144c565b610670565b6040516101ff91906114a4565b60405180910390f35b610222600480360381019061021d9190611594565b610899565b60405161022f91906114a4565b60405180910390f35b610252600480360381019061024d9190611535565b6109f8565b60405161025f91906114cc565b60405180910390f35b610270610a3e565b60405161027d91906115ce565b60405180910390f35b61028e610a63565b60405161029b919061139b565b60405180910390f35b6102be60048036038101906102b99190611535565b610aef565b005b6102da60048036038101906102d5919061144c565b610c87565b6040516102e791906114a4565b60405180910390f35b61030a600480360381019061030591906115e7565b610ca2565b60405161031791906114cc565b60405180910390f35b61033a60048036038101906103359190611535565b610d24565b005b61035660048036038101906103519190611535565b610edf565b60405161036391906114a4565b60405180910390f35b5f805461037890611652565b80601f01602080910402602001604051908101604052809291908181526020018280546103a490611652565b80156103ef5780601f106103c6576101008083540402835291602001916103ef565b820191905f5260205f20905b8154815290600101906020018083116103d257829003601f168201915b505050505081565b5f5f339050610407818585610efc565b600191505092915050565b5f600354905090565b5f5f3390505f60075f8773ffffffffffffffffffffffffffffffffffffffff1673ffffffffffffffffffffffffffffffffffffffff1681526020019081526020015f205f8373ffffffffffffffffffffffffffffffffffffffff1673ffffffffffffffffffffffffffffffffffffffff1681526020019081526020015f205490507fffffffffffffffffffffffffffffffffffffffffffffffffffffffffffffffff811461051d5783811015610506576040517f08c379a00000000000000000000000000000000000000000000000000000000081526004016104fd906116cc565b60405180910390fd5b61051c868386846105179190611717565b610efc565b5b6105288686866110bf565b6001925050509392505050565b60045f9054906101000a900473ffffffffffffffffffffffffffffffffffffffff1673ffffffffffffffffffffffffffffffffffffffff163373ffffffffffffffffffffffffffffffffffffffff16146105c4576040517f08c379a00000000000000000000000000000000000000000000000000000000081526004016105bb90611794565b60405180910390fd5b5f60055f8373ffffffffffffffffffffffffffffffffffffffff1673ffffffffffffffffffffffffffffffffffffffff1681526020019081526020015f205f6101000a81548160ff0219169083151502179055508073ffffffffffffffffffffffffffffffffffffffff167fe94479a9f7e1952cc78f2d6baab678adc1b772d936c6583def489e524cb6669260405160405180910390a250565b60025f9054906101000a900460ff1681565b5f60055f3373ffffffffffffffffffffffffffffffffffffffff1673ffffffffffffffffffffffffffffffffffffffff1681526020019081526020015f205f9054906101000a900460ff1680610712575060045f9054906101000a900473ffffffffffffffffffffffffffffffffffffffff1673ffffffffffffffffffffffffffffffffffffffff163373ffffffffffffffffffffffffffffffffffffffff16145b610751576040517f08c379a0000000000000000000000000000000000000000000000000000000008152600401610748906117fc565b60405180910390fd5b5f73ffffffffffffffffffffffffffffffffffffffff168373ffffffffffffffffffffffffffffffffffffffff16036107bf576040517f08c379a00000000000000000000000000000000000000000000000000000000081526004016107b690611864565b60405180910390fd5b8160035f8282546107d09190611882565b925050819055508160065f8573ffffffffffffffffffffffffffffffffffffffff1673ffffffffffffffffffffffffffffffffffffffff1681526020019081526020015f205f8282546108239190611882565b925050819055508273ffffffffffffffffffffffffffffffffffffffff165f73ffffffffffffffffffffffffffffffffffffffff167fddf252ad1be2c89b69c2b068fc378daa952ba7f163c4a11628f55a4df523b3ef8460405161088791906114cc565b60405180910390a36001905092915050565b5f5f3390508260065f8373ffffffffffffffffffffffffffffffffffffffff1673ffffffffffffffffffffffffffffffffffffffff1681526020019081526020015f2054101561091e576040517f08c379a0000000000000000000000000000000000000000000000000000000008152600401610915906118ff565b60405180910390fd5b8260065f8373ffffffffffffffffffffffffffffffffffffffff1673ffffffffffffffffffffffffffffffffffffffff1681526020019081526020015f205f82825461096a9190611717565b925050819055508260035f8282546109829190611717565b925050819055505f73ffffffffffffffffffffffffffffffffffffffff168173ffffffffffffffffffffffffffffffffffffffff167fddf252ad1be2c89b69c2b068fc378daa952ba7f163c4a11628f55a4df523b3ef856040516109e691906114cc565b60405180910390a36001915050919050565b5f60065f8373ffffffffffffffffffffffffffffffffffffffff1673ffffffffffffffffffffffffffffffffffffffff1681526020019081526020015f20549050919050565b60045f9054906101000a900473ffffffffffffffffffffffffffffffffffffffff1681565b60018054610a7090611652565b80601f0160208091040260200160405190810160405280929190818152602001828054610a9c90611652565b8015610ae75780601f10610abe57610100808354040283529160200191610ae7565b820191905f5260205f20905b815481529060010190602001808311610aca57829003601f168201915b505050505081565b60045f9054906101000a900473ffffffffffffffffffffffffffffffffffffffff1673ffffffffffffffffffffffffffffffffffffffff163373ffffffffffffffffffffffffffffffffffffffff1614610b7e576040517f08c379a0000000000000000000000000000000000000000000000000000000008152600401610b7590611794565b60405180910390fd5b5f73ffffffffffffffffffffffffffffffffffffffff168173ffffffffffffffffffffffffffffffffffffffff1603610bec576040517f08c379a0000000000000000000000000000000000000000000000000000000008152600401610be390611864565b60405180910390fd5b600160055f8373ffffffffffffffffffffffffffffffffffffffff1673ffffffffffffffffffffffffffffffffffffffff1681526020019081526020015f205f6101000a81548160ff0219169083151502179055508073ffffffffffffffffffffffffffffffffffffffff167f6ae172837ea30b801fbfcdd4108aa1d5bf8ff775444fd70256b44e6bf3dfc3f660405160405180910390a250565b5f5f339050610c978185856110bf565b600191505092915050565b5f60075f8473ffffffffffffffffffffffffffffffffffffffff1673ffffffffffffffffffffffffffffffffffffffff1681526020019081526020015f205f8373ffffffffffffffffffffffffffffffffffffffff1673ffffffffffffffffffffffffffffffffffffffff1681526020019081526020015f2054905092915050565b60045f9054906101000a900473ffffffffffffffffffffffffffffffffffffffff1673ffffffffffffffffffffffffffffffffffffffff163373ffffffffffffffffffffffffffffffffffffffff1614610db3576040517f08c379a0000000000000000000000000000000000000000000000000000000008152600401610daa90611794565b60405180910390fd5b5f73ffffffffffffffffffffffffffffffffffffffff168173ffffffffffffffffffffffffffffffffffffffff1603610e21576040517f08c379a0000000000000000000000000000000000000000000000000000000008152600401610e1890611864565b60405180910390fd5b8073ffffffffffffffffffffffffffffffffffffffff1660045f9054906101000a900473ffffffffffffffffffffffffffffffffffffffff1673ffffffffffffffffffffffffffffffffffffffff167f8be0079c531659141344cd1fd0a4f28419497f9722a3daafe3b4186f6b6457e060405160405180910390a38060045f6101000a81548173ffffffffffffffffffffffffffffffffffffffff021916908373ffffffffffffffffffffffffffffffffffffffff16021790555050565b6005602052805f5260405f205f915054906101000a900460ff1681565b5f73ffffffffffffffffffffffffffffffffffffffff168373ffffffffffffffffffffffffffffffffffffffff1603610f6a576040517f08c379a0000000000000000000000000000000000000000000000000000000008152600401610f6190611967565b60405180910390fd5b5f73ffffffffffffffffffffffffffffffffffffffff168273ffffffffffffffffffffffffffffffffffffffff1603610fd8576040517f08c379a0000000000000000000000000000000000000000000000000000000008152600401610fcf906119cf565b60405180910390fd5b8060075f8573ffffffffffffffffffffffffffffffffffffffff1673ffffffffffffffffffffffffffffffffffffffff1681526020019081526020015f205f8473ffffffffffffffffffffffffffffffffffffffff1673ffffffffffffffffffffffffffffffffffffffff1681526020019081526020015f20819055508173ffffffffffffffffffffffffffffffffffffffff168373ffffffffffffffffffffffffffffffffffffffff167f8c5be1e5ebec7d5bd14f71427d1e84f3dd0314c0f7b2291e5b200ac8c7c3b925836040516110b291906114cc565b60405180910390a3505050565b5f73ffffffffffffffffffffffffffffffffffffffff168373ffffffffffffffffffffffffffffffffffffffff160361112d576040517f08c379a000000000000000000000000000000000000000000000000000000000815260040161112490611a37565b60405180910390fd5b5f73ffffffffffffffffffffffffffffffffffffffff168273ffffffffffffffffffffffffffffffffffffffff160361119b576040517f08c379a000000000000000000000000000000000000000000000000000000000815260040161119290611a9f565b60405180910390fd5b8060065f8573ffffffffffffffffffffffffffffffffffffffff1673ffffffffffffffffffffffffffffffffffffffff1681526020019081526020015f2054101561121b576040517f08c379a0000000000000000000000000000000000000000000000000000000008152600401611212906118ff565b60405180910390fd5b8060065f8573ffffffffffffffffffffffffffffffffffffffff1673ffffffffffffffffffffffffffffffffffffffff1681526020019081526020015f205f8282546112679190611717565b925050819055508060065f8473ffffffffffffffffffffffffffffffffffffffff1673ffffffffffffffffffffffffffffffffffffffff1681526020019081526020015f205f8282546112ba9190611882565b925050819055508173ffffffffffffffffffffffffffffffffffffffff168373ffffffffffffffffffffffffffffffffffffffff167fddf252ad1be2c89b69c2b068fc378daa952ba7f163c4a11628f55a4df523b3ef8360405161131e91906114cc565b60405180910390a3505050565b5f81519050919050565b5f82825260208201905092915050565b8281835e5f83830152505050565b5f601f19601f8301169050919050565b5f61136d8261132b565b6113778185611335565b9350611387818560208601611345565b61139081611353565b840191505092915050565b5f6020820190508181035f8301526113b38184611363565b905092915050565b5f5ffd5b5f73ffffffffffffffffffffffffffffffffffffffff82169050919050565b5f6113e8826113bf565b9050919050565b6113f8816113de565b8114611402575f5ffd5b50565b5f81359050611413816113ef565b92915050565b5f819050919050565b61142b81611419565b8114611435575f5ffd5b50565b5f8135905061144681611422565b92915050565b5f5f60408385031215611462576114616113bb565b5b5f61146f85828601611405565b925050602061148085828601611438565b9150509250929050565b5f8115159050919050565b61149e8161148a565b82525050565b5f6020820190506114b75f830184611495565b92915050565b6114c681611419565b82525050565b5f6020820190506114df5f8301846114bd565b92915050565b5f5f5f606084860312156114fc576114fb6113bb565b5b5f61150986828701611405565b935050602061151a86828701611405565b925050604061152b86828701611438565b9150509250925092565b5f6020828403121561154a576115496113bb565b5b5f61155784828501611405565b91505092915050565b5f60ff82169050919050565b61157581611560565b82525050565b5f60208201905061158e5f83018461156c565b92915050565b5f602082840312156115a9576115a86113bb565b5b5f6115b684828501611438565b91505092915050565b6115c8816113de565b82525050565b5f6020820190506115e15f8301846115bf565b92915050565b5f5f604083850312156115fd576115fc6113bb565b5b5f61160a85828601611405565b925050602061161b85828601611405565b9150509250929050565b7f4e487b71000000000000000000000000000000000000000000000000000000005f52602260045260245ffd5b5f600282049050600182168061166957607f821691505b60208210810361167c5761167b611625565b5b50919050565b7f496e73756666696369656e7420616c6c6f77616e6365000000000000000000005f82015250565b5f6116b6601683611335565b91506116c182611682565b602082019050919050565b5f6020820190508181035f8301526116e3816116aa565b9050919050565b7f4e487b71000000000000000000000000000000000000000000000000000000005f52601160045260245ffd5b5f61172182611419565b915061172c83611419565b9250828203905081811115611744576117436116ea565b5b92915050565b7f4e6f74206f776e657200000000000000000000000000000000000000000000005f82015250565b5f61177e600983611335565b91506117898261174a565b602082019050919050565b5f6020820190508181035f8301526117ab81611772565b9050919050565b7f4e6f74206d696e746572000000000000000000000000000000000000000000005f82015250565b5f6117e6600a83611335565b91506117f1826117b2565b602082019050919050565b5f6020820190508181035f830152611813816117da565b9050919050565b7f496e76616c6964206164647265737300000000000000000000000000000000005f82015250565b5f61184e600f83611335565b91506118598261181a565b602082019050919050565b5f6020820190508181035f83015261187b81611842565b9050919050565b5f61188c82611419565b915061189783611419565b92508282019050808211156118af576118ae6116ea565b5b92915050565b7f496e73756666696369656e742062616c616e63650000000000000000000000005f82015250565b5f6118e9601483611335565b91506118f4826118b5565b602082019050919050565b5f6020820190508181035f830152611916816118dd565b9050919050565b7f496e76616c6964206f776e6572000000000000000000000000000000000000005f82015250565b5f611951600d83611335565b915061195c8261191d565b602082019050919050565b5f6020820190508181035f83015261197e81611945565b9050919050565b7f496e76616c6964207370656e64657200000000000000000000000000000000005f82015250565b5f6119b9600f83611335565b91506119c482611985565b602082019050919050565b5f6020820190508181035f8301526119e6816119ad565b9050919050565b7f496e76616c69642073656e6465720000000000000000000000000000000000005f82015250565b5f611a21600e83611335565b9150611a2c826119ed565b602082019050919050565b5f6020820190508181035f830152611a4e81611a15565b9050919050565b7f496e76616c696420726563697069656e740000000000000000000000000000005f82015250565b5f611a89601183611335565b9150611a9482611a55565b602082019050919050565b5f6020820190508181035f830152611ab681611a7d565b905091905056fea2646970667358221220472227d89e3ca2207ba66a0643762d9843ad6a913dc91518f77e563f4c1e577864736f6c634300081e0033","linkReferences":{}},"methodIdentifiers":{"addMinter(address)":"983b2d56","allowance(address,address)":"dd62ed3e","approve(address,uint256)":"095ea7b3","balanceOf(address)":"70a08231","burn(uint256)":"42966c68","decimals()":"313ce567","mint(address,uint256)":"40c10f19","minters(address)":"f46eccc4","name()":"06fdde03","owner()":"8da5cb5b","removeMinter(address)":"3092afd5","symbol()":"95d89b41","totalSupply()":"18160ddd","transfer(address,uint256)":"a9059cbb","transferFrom(address,address,uint256)":"23b872dd","transferOwnership(address)":"f2fde38b"},"id":0}