{"abi":[{"type":"constructor","inputs":[{"name":"_qtmToken","type":"address","internalType":"address"},{"name":"_governance","type":"address","internalType":"address"}],"stateMutability":"nonpayable"},{"type":"receive","stateMutability":"payable"},{"type":"function","name":"ADVISORS","inputs":[],"outputs":[{"name":"","type":"uint256","internalType":"uint256"}],"stateMutability":"view"},{"type":"function","name":"CLIFF_DURATION","inputs":[],"outputs":[{"name":"","type":"uint256","internalType":"uint256"}],"stateMutability":"view"},{"type":"function","name":"COMMUNITY_AIRDROPS","inputs":[],"outputs":[{"name":"","type":"uint256","internalType":"uint256"}],"stateMutability":"view"},{"type":"function","name":"ECOSYSTEM_FUND","inputs":[],"outputs":[{"name":"","type":"uint256","internalType":"uint256"}],"stateMutability":"view"},{"type":"function","name":"GENESIS_VALIDATORS","inputs":[],"outputs":[{"name":"","type":"uint256","internalType":"uint256"}],"stateMutability":"view"},{"type":"function","name":"LIQUIDITY_PROVISION","inputs":[],"outputs":[{"name":"","type":"uint256","internalType":"uint256"}],"stateMutability":"view"},{"type":"function","name":"PUBLIC_SALE","inputs":[],"outputs":[{"name":"","type":"uint256","internalType":"uint256"}],"stateMutability":"view"},{"type":"function","name":"STAKING_REWARDS","inputs":[],"outputs":[{"name":"","type":"uint256","internalType":"uint256"}],"stateMutability":"view"},{"type":"function","name":"TEAM_ALLOCATION","inputs":[],"outputs":[{"name":"","type":"uint256","internalType":"uint256"}],"stateMutability":"view"},{"type":"function","name":"TGE_UNLOCK","inputs":[],"outputs":[{"name":"","type":"uint256","internalType":"uint256"}],"stateMutability":"view"},{"type":"function","name":"TOTAL_SUPPLY","inputs":[],"outputs":[{"name":"","type":"uint256","internalType":"uint256"}],"stateMutability":"view"},{"type":"function","name":"VESTING_DURATION","inputs":[],"outputs":[{"name":"","type":"uint256","internalType":"uint256"}],"stateMutability":"view"},{"type":"function","name":"addToWhitelist","inputs":[{"name":"addresses","type":"address[]","internalType":"address[]"}],"outputs":[],"stateMutability":"nonpayable"},{"type":"function","name":"airdropCampaigns","inputs":[{"name":"","type":"uint256","internalType":"uint256"}],"outputs":[{"name":"name","type":"string","internalType":"string"},{"name":"totalAmount","type":"uint256","internalType":"uint256"},{"name":"distributed","type":"uint256","internalType":"uint256"},{"name":"claimDeadline","type":"uint256","internalType":"uint256"},{"name":"merkleRoot","type":"bytes32","internalType":"bytes32"}],"stateMutability":"view"},{"type":"function","name":"allocateEcosystemFunds","inputs":[{"name":"recipient","type":"address","internalType":"address"},{"name":"amount","type":"uint256","internalType":"uint256"}],"outputs":[],"stateMutability":"nonpayable"},{"type":"function","name":"allocateStakingRewards","inputs":[{"name":"stakingContract","type":"address","internalType":"address"},{"name":"amount","type":"uint256","internalType":"uint256"}],"outputs":[],"stateMutability":"nonpayable"},{"type":"function","name":"categoryAllocations","inputs":[{"name":"","type":"uint8","internalType":"enum TokenDistribution.DistributionCategory"}],"outputs":[{"name":"","type":"uint256","internalType":"uint256"}],"stateMutability":"view"},{"type":"function","name":"categoryDistributed","inputs":[{"name":"","type":"uint8","internalType":"enum TokenDistribution.DistributionCategory"}],"outputs":[{"name":"","type":"uint256","internalType":"uint256"}],"stateMutability":"view"},{"type":"function","name":"claimAirdrop","inputs":[{"name":"campaignId","type":"uint256","internalType":"uint256"},{"name":"amount","type":"uint256","internalType":"uint256"},{"name":"merkleProof","type":"bytes32[]","internalType":"bytes32[]"}],"outputs":[],"stateMutability":"nonpayable"},{"type":"function","name":"claimGenesisAllocation","inputs":[],"outputs":[],"stateMutability":"nonpayable"},{"type":"function","name":"configurePublicSale","inputs":[{"name":"startTime","type":"uint256","internalType":"uint256"},{"name":"endTime","type":"uint256","internalType":"uint256"},{"name":"minContribution","type":"uint256","internalType":"uint256"},{"name":"maxContribution","type":"uint256","internalType":"uint256"},{"name":"tokenPrice","type":"uint256","internalType":"uint256"},{"name":"hardCap","type":"uint256","internalType":"uint256"}],"outputs":[],"stateMutability":"nonpayable"},{"type":"function","name":"contributeToPublicSale","inputs":[],"outputs":[],"stateMutability":"payable"},{"type":"function","name":"createAirdropCampaign","inputs":[{"name":"name","type":"string","internalType":"string"},{"name":"totalAmount","type":"uint256","internalType":"uint256"},{"name":"claimDuration","type":"uint256","internalType":"uint256"},{"name":"merkleRoot","type":"bytes32","internalType":"bytes32"}],"outputs":[],"stateMutability":"nonpayable"},{"type":"function","name":"createVestingSchedule","inputs":[{"name":"beneficiary","type":"address","internalType":"address"},{"name":"amount","type":"uint256","internalType":"uint256"},{"name":"category","type":"uint8","internalType":"enum TokenDistribution.DistributionCategory"},{"name":"revocable","type":"bool","internalType":"bool"}],"outputs":[],"stateMutability":"nonpayable"},{"type":"function","name":"finalizePublicSale","inputs":[],"outputs":[],"stateMutability":"nonpayable"},{"type":"function","name":"genesisValidatorAllocations","inputs":[{"name":"","type":"address","internalType":"address"}],"outputs":[{"name":"","type":"uint256","internalType":"uint256"}],"stateMutability":"view"},{"type":"function","name":"genesisValidators","inputs":[{"name":"","type":"uint256","internalType":"uint256"}],"outputs":[{"name":"","type":"address","internalType":"address"}],"stateMutability":"view"},{"type":"function","name":"getCategoryAllocation","inputs":[{"name":"category","type":"uint8","internalType":"enum TokenDistribution.DistributionCategory"}],"outputs":[{"name":"allocated","type":"uint256","internalType":"uint256"},{"name":"distributed","type":"uint256","internalType":"uint256"}],"stateMutability":"view"},{"type":"function","name":"getReleasableAmount","inputs":[{"name":"beneficiary","type":"address","internalType":"address"}],"outputs":[{"name":"","type":"uint256","internalType":"uint256"}],"stateMutability":"view"},{"type":"function","name":"getVestingSchedule","inputs":[{"name":"beneficiary","type":"address","internalType":"address"}],"outputs":[{"name":"","type":"tuple","internalType":"struct TokenDistribution.VestingSchedule","components":[{"name":"totalAmount","type":"uint256","internalType":"uint256"},{"name":"startTime","type":"uint256","internalType":"uint256"},{"name":"cliffTime","type":"uint256","internalType":"uint256"},{"name":"duration","type":"uint256","internalType":"uint256"},{"name":"released","type":"uint256","internalType":"uint256"},{"name":"revocable","type":"bool","internalType":"bool"},{"name":"revoked","type":"bool","internalType":"bool"}]}],"stateMutability":"view"},{"type":"function","name":"governance","inputs":[],"outputs":[{"name":"","type":"address","internalType":"address"}],"stateMutability":"view"},{"type":"function","name":"hasClaimedAirdrop","inputs":[{"name":"campaignId","type":"uint256","internalType":"uint256"},{"name":"recipient","type":"address","internalType":"address"}],"outputs":[{"name":"","type":"bool","internalType":"bool"}],"stateMutability":"view"},{"type":"function","name":"hasVesting","inputs":[{"name":"","type":"address","internalType":"address"}],"outputs":[{"name":"","type":"bool","internalType":"bool"}],"stateMutability":"view"},{"type":"function","name":"initialize","inputs":[{"name":"_tgeTimestamp","type":"uint256","internalType":"uint256"}],"outputs":[],"stateMutability":"nonpayable"},{"type":"function","name":"initialized","inputs":[],"outputs":[{"name":"","type":"bool","internalType":"bool"}],"stateMutability":"view"},{"type":"function","name":"liquidityProvisions","inputs":[{"name":"","type":"uint256","internalType":"uint256"}],"outputs":[{"name":"dexAddress","type":"address","internalType":"address"},{"name":"tokenAmount","type":"uint256","internalType":"uint256"},{"name":"ethAmount","type":"uint256","internalType":"uint256"},{"name":"unlockTime","type":"uint256","internalType":"uint256"},{"name":"provided","type":"bool","internalType":"bool"}],"stateMutability":"view"},{"type":"function","name":"nextAirdropId","inputs":[],"outputs":[{"name":"","type":"uint256","internalType":"uint256"}],"stateMutability":"view"},{"type":"function","name":"provideLiquidity","inputs":[{"name":"provisionIndex","type":"uint256","internalType":"uint256"}],"outputs":[],"stateMutability":"nonpayable"},{"type":"function","name":"publicSale","inputs":[],"outputs":[{"name":"startTime","type":"uint256","internalType":"uint256"},{"name":"endTime","type":"uint256","internalType":"uint256"},{"name":"minContribution","type":"uint256","internalType":"uint256"},{"name":"maxContribution","type":"uint256","internalType":"uint256"},{"name":"tokenPrice","type":"uint256","internalType":"uint256"},{"name":"hardCap","type":"uint256","internalType":"uint256"},{"name":"totalRaised","type":"uint256","internalType":"uint256"},{"name":"finalized","type":"bool","internalType":"bool"}],"stateMutability":"view"},{"type":"function","name":"publicSaleContributions","inputs":[{"name":"","type":"address","internalType":"address"}],"outputs":[{"name":"","type":"uint256","internalType":"uint256"}],"stateMutability":"view"},{"type":"function","name":"publicSaleWhitelist","inputs":[{"name":"","type":"address","internalType":"address"}],"outputs":[{"name":"","type":"bool","internalType":"bool"}],"stateMutability":"view"},{"type":"function","name":"qtmToken","inputs":[],"outputs":[{"name":"","type":"address","internalType":"contract IQuantumToken"}],"stateMutability":"view"},{"type":"function","name":"registerGenesisValidators","inputs":[{"name":"validators","type":"address[]","internalType":"address[]"},{"name":"allocations","type":"uint256[]","internalType":"uint256[]"}],"outputs":[],"stateMutability":"nonpayable"},{"type":"function","name":"releaseVestedTokens","inputs":[],"outputs":[],"stateMutability":"nonpayable"},{"type":"function","name":"removeFromWhitelist","inputs":[{"name":"addresses","type":"address[]","internalType":"address[]"}],"outputs":[],"stateMutability":"nonpayable"},{"type":"function","name":"revokeVesting","inputs":[{"name":"beneficiary","type":"address","internalType":"address"}],"outputs":[],"stateMutability":"nonpayable"},{"type":"function","name":"scheduleLiquidityProvision","inputs":[{"name":"dexAddress","type":"address","internalType":"address"},{"name":"tokenAmount","type":"uint256","internalType":"uint256"},{"name":"ethAmount","type":"uint256","internalType":"uint256"},{"name":"unlockTime","type":"uint256","internalType":"uint256"}],"outputs":[],"stateMutability":"nonpayable"},{"type":"function","name":"tgeTimestamp","inputs":[],"outputs":[{"name":"","type":"uint256","internalType":"uint256"}],"stateMutability":"view"},{"type":"function","name":"updateGovernance","inputs":[{"name":"newGovernance","type":"address","internalType":"address"}],"outputs":[],"stateMutability":"nonpayable"},{"type":"function","name":"updateWhitelistRequirement","inputs":[{"name":"required","type":"bool","internalType":"bool"}],"outputs":[],"stateMutability":"nonpayable"},{"type":"function","name":"vestingSchedules","inputs":[{"name":"","type":"address","internalType":"address"}],"outputs":[{"name":"totalAmount","type":"uint256","internalType":"uint256"},{"name":"startTime","type":"uint256","internalType":"uint256"},{"name":"cliffTime","type":"uint256","internalType":"uint256"},{"name":"duration","type":"uint256","internalType":"uint256"},{"name":"released","type":"uint256","internalType":"uint256"},{"name":"revocable","type":"bool","internalType":"bool"},{"name":"revoked","type":"bool","internalType":"bool"}],"stateMutability":"view"},{"type":"function","name":"whitelistRequired","inputs":[],"outputs":[{"name":"","type":"bool","internalType":"bool"}],"stateMutability":"view"},{"type":"event","name":"AirdropClaimed","inputs":[{"name":"campaignId","type":"uint256","indexed":false,"internalType":"uint256"},{"name":"recipient","type":"address","indexed":false,"internalType":"address"},{"name":"amount","type":"uint256","indexed":false,"internalType":"uint256"}],"anonymous":false},{"type":"event","name":"AirdropCreated","inputs":[{"name":"campaignId","type":"uint256","indexed":false,"internalType":"uint256"},{"name":"name","type":"string","indexed":false,"internalType":"string"},{"name":"amount","type":"uint256","indexed":false,"internalType":"uint256"}],"anonymous":false},{"type":"event","name":"GenesisValidatorRegistered","inputs":[{"name":"validator","type":"address","indexed":false,"internalType":"address"},{"name":"allocation","type":"uint256","indexed":false,"internalType":"uint256"}],"anonymous":false},{"type":"event","name":"LiquidityProvided","inputs":[{"name":"dex","type":"address","indexed":false,"internalType":"address"},{"name":"tokenAmount","type":"uint256","indexed":false,"internalType":"uint256"},{"name":"ethAmount","type":"uint256","indexed":false,"internalType":"uint256"}],"anonymous":false},{"type":"event","name":"PublicSaleConfigured","inputs":[{"name":"startTime","type":"uint256","indexed":false,"internalType":"uint256"},{"name":"endTime","type":"uint256","indexed":false,"internalType":"uint256"},{"name":"tokenPrice","type":"uint256","indexed":false,"internalType":"uint256"}],"anonymous":false},{"type":"event","name":"PublicSaleContribution","inputs":[{"name":"contributor","type":"address","indexed":false,"internalType":"address"},{"name":"ethAmount","type":"uint256","indexed":false,"internalType":"uint256"},{"name":"tokenAmount","type":"uint256","indexed":false,"internalType":"uint256"}],"anonymous":false},{"type":"event","name":"PublicSaleFinalized","inputs":[{"name":"totalRaised","type":"uint256","indexed":false,"internalType":"uint256"},{"name":"tokensSold","type":"uint256","indexed":false,"internalType":"uint256"}],"anonymous":false},{"type":"event","name":"TokensAllocated","inputs":[{"name":"category","type":"uint8","indexed":false,"internalType":"enum TokenDistribution.DistributionCategory"},{"name":"amount","type":"uint256","indexed":false,"internalType":"uint256"}],"anonymous":false},{"type":"event","name":"TokensReleased","inputs":[{"name":"beneficiary","type":"address","indexed":false,"internalType":"address"},{"name":"amount","type":"uint256","indexed":false,"internalType":"uint256"}],"anonymous":false},{"type":"event","name":"VestingScheduleCreated","inputs":[{"name":"beneficiary","type":"address","indexed":false,"internalType":"address"},{"name":"amount","type":"uint256","indexed":false,"internalType":"uint256"}],"anonymous":false}],"bytecode":{"object":"0x60a03461023057601f612daf38819003918201601f19168301916001600160401b0383118484101761023457808492604094855283398101031261023057610052602061004b83610248565b9201610248565b6011805460ff191660011790556001600160a01b039182166080525f80546001600160a01b0319169290911691909117815560036020526a7c13bc4b2c133c560000007f3617319a054d772f909f7c479a2cebe5066e836a939412e32403c99029b92eff8190556acecb8f27f4200f3a0000007fa15bc60c955c405d20d9149c709e2460f1c2d9a497496a7f46004d1772c3054c556aa56fa5b99019a5c80000007fc3a24b0501bd2c13a7e57f2db4369ec4c223447539fc0724a9d55ac4a06ebd4d557fcbc4e5fb02c3d1de23a9f1e014b4d2ee5aeaea9505df5e855c9210bf472495af556a295be96e640669720000007f83ec6a1f0257b830b5e016457c9cf1435391bf56cc98f369a58a54fe937724658190556a52b7d2dcc80cd2e40000007f405aad32e1adbac89bb7f176e338b8fc6e994ca210c9bb7bdca249b465942250557fc69056f16cbaa3c616b828e333ab7d3a32310765507f8f58359e99ebb7a885f381905560079091527ff2c49132ed1cee2a7e75bde50d332a2f81f1d01e5456d8a19d1df09bd561dbd255604051612b52908161025d82396080518181816106180152818161090201528181610e9f015281816113520152818161156b01528181611ca5015281816123680152818161240d01526126050152f35b5f80fd5b634e487b7160e01b5f52604160045260245ffd5b51906001600160a01b03821682036102305756fe6080604052600436101561001a575b3615610018575f80fd5b005b5f3560e01c806307bce0cd14612706578063158ef93e146126e457806316ad05aa146126a45780631cc298fe14611ff657806323bda00a1461267c578063294a48bc146125855780632afd1a7d1461255a5780632da6afb3146103a057806333bc1c5c146124fc57806335f74869146124c45780633b0da260146122a05780633ebe434914611ff15780634cfc4d30146122825780634d906de214611ffb5780634eaee3f314611ff65780634ed8771314611ff1578063548db17414611f6e57806354dd1da414611e305780635a95ba3414611ae65780635aa6e67514611abf5780635f89584e14611aa457806368915ed31461186757806373eda3cc146117095780637af3402d146116c75780637e06e9131461165c5780637f649783146115d75780638c190b9f1461159a5780638f16768314611556578063902d55a514611530578063983c44d6146115155780639f82906314611464578063a4317ef414611447578063a4a23317146112dd578063a9b14ba2146112a5578063aff38dc814611288578063b25612631461123a578063b3daa6521461121d578063c4400b2f14611116578063c61ebe7914610f8c578063ced6528014610f35578063cfe845ca14610dec578063d8449b6314610daf578063e2dd00d814610d7e578063e395aedf14610b0b578063e59c9510146107c9578063eb521a4c1461058a578063ee772da714610546578063ef406fdc146103c7578063fb08f3a1146103a5578063fd99cbed146103a0578063fdb20ccb1461031f5763fe4b84df0361000e573461031b57602036600319011261031b5760043561028260018060a01b035f541633146128b7565b60025460ff81166102e0574282106102a357600191825560ff191617600255005b60405162461bcd60e51b81526020600482015260156024820152740496e76616c6964205447452074696d657374616d7605c1b6044820152606490fd5b60405162461bcd60e51b8152602060048201526013602482015272105b1c9958591e481a5b9a5d1a585b1a5e9959606a1b6044820152606490fd5b5f80fd5b3461031b57602036600319011261031b576001600160a01b0361034061277e565b165f52600560205260e060405f2060ff815491600181015490600281015460038201549060056004840154930154936040519687526020870152604086015260608501526080840152818116151560a084015260081c16151560c0820152f35b612794565b3461031b575f36600319011261031b57602060ff601154166040519015158152f35b3461031b57608036600319011261031b576103e061277e565b602435906103f860018060a01b035f541633146128b7565b60055f5260046020526104446104128360405f20546128f5565b60055f5260036020527f405aad32e1adbac89bb7f176e338b8fc6e994ca210c9bb7bdca249b465942250541015612902565b6040519060a082018281106001600160401b038211176105325760405260018060a01b0316815260208101908282526040810190604435825260608101606435815260808201905f8252601654600160401b811015610532578060016104ad920160165561280b565b94909461051f576105039560049460018060a01b039051166bffffffffffffffffffffffff60a01b87541617865551600186015551600285015551600384015551151591019060ff801983541691151516179055565b60055f52600460205261051b60405f209182546128f5565b9055005b634e487b7160e01b5f525f60045260245ffd5b634e487b7160e01b5f52604160045260245ffd5b3461031b57602036600319011261031b5760043580151580910361031b5761057860018060a01b035f541633146128b7565b60ff8019601154169116176011555f80f35b3461031b57602036600319011261031b576105af60018060a01b035f541633146128b7565b6105ba60043561280b565b5060048101805460ff8116610791576003830154421061075d5760ff191660019081179091558154908201805460405163a9059cbb60e01b81526001600160a01b03939093166004840152602483015290602081806044810103815f7f00000000000000000000000000000000000000000000000000000000000000006001600160a01b03165af19081156106dd575f9161072e575b50156106f15760028201908154801580156106b8575b5050915491549054604080516001600160a01b0390941684526020840192909252908201527f4da600077ef1c533c6fc47d886b74f8eb10195c987edfc00c907a2e184a027949080606081015b0390a1005b5f808093819360018060a01b038954169083906106e8575bf1156106dd578380610666565b6040513d5f823e3d90fd5b506108fc6106d0565b60405162461bcd60e51b8152602060048201526015602482015274151bdad95b881d1c985b9cd9995c8819985a5b1959605a1b6044820152606490fd5b610750915060203d602011610756575b6107488183612896565b810190612943565b83610650565b503d61073e565b60405162461bcd60e51b815260206004820152600c60248201526b139bdd081d5b9b1bd8dad95960a21b6044820152606490fd5b60405162461bcd60e51b815260206004820152601060248201526f105b1c9958591e481c1c9bdd9a59195960821b6044820152606490fd5b5f36600319011261031b576040516107e08161287a565b600754808252600854916020810192835260095460408201908152600a549060608301918252600b549460808401958652600c549460a08501958652600d549460c0810195865260e060ff600e541615159101524210610ad357514211610aa157513410610a6c57335f52600f60205261085e3460405f20546128f5565b905110610a3557610871903490516128f5565b9051106109fd5760ff601154166109b2575b670de0b6b3a76400003402348104670de0b6b3a7640000143415171561099e576108ae915190612a5f565b335f52600f60205260405f206108c53482546128f5565b90556108d334600d546128f5565b600d5560405163a9059cbb60e01b815233600482015260248101829052906020826044815f6001600160a01b037f0000000000000000000000000000000000000000000000000000000000000000165af19081156106dd576109616106b3927f56964c5322dd5666a7cc6a5b833740b32c23d78fa2b083c83a9341ae66810e5d945f9161097f575b5061295b565b60408051338152346020820152908101919091529081906060820190565b610998915060203d602011610756576107488183612896565b8561095b565b634e487b7160e01b5f52601160045260245ffd5b335f52601060205260ff60405f2054166108835760405162461bcd60e51b815260206004820152600f60248201526e139bdd081dda1a5d195b1a5cdd1959608a1b6044820152606490fd5b60405162461bcd60e51b815260206004820152601060248201526f0457863656564732068617264206361760841b6044820152606490fd5b60405162461bcd60e51b815260206004820152600f60248201526e45786365656473206d6178696d756d60881b6044820152606490fd5b60405162461bcd60e51b815260206004820152600d60248201526c42656c6f77206d696e696d756d60981b6044820152606490fd5b60405162461bcd60e51b815260206004820152600a60248201526914d85b1948195b99195960b21b6044820152606490fd5b60405162461bcd60e51b815260206004820152601060248201526f14d85b19481b9bdd081cdd185c9d195960821b6044820152606490fd5b3461031b57604036600319011261031b576004356001600160401b03811161031b57610b3b9036906004016127af565b906024356001600160401b03811161031b57610b5b9036906004016127af565b90610b7060018060a01b035f541633146128b7565b818403610d47579291905f935f935b808510610be857855f80526004602052610bd1610ba08260405f20546128f5565b5f805260036020527f3617319a054d772f909f7c479a2cebe5066e836a939412e32403c99029b92eff541015612902565b5f8052600460205261051b60405f209182546128f5565b909192939460018060a01b03610c07610c02888589612a3b565b612a4b565b165f52601460205260405f2054610d0d57610c23868585612a3b565b356001600160a01b03610c3a610c0289868a612a3b565b165f52601460205260405f2055610c55610c02878488612a3b565b9060155490600160401b82101561053257600192610c7b8385610cad95016015556127df565b819291549060031b91868060a01b0316821b91868060a01b03901b1916179055610ca6888787612a3b565b35906128f5565b957fcf388182e3a5729f612141863c1858fb2f52ad197a8d68dd80e3865d6840bb20610cdd610c0283868a612a3b565b610ce8838888612a3b565b604080516001600160a01b039390931683529035602083015290a10193929190610b7f565b60405162461bcd60e51b8152602060048201526012602482015271105b1c9958591e481c9959da5cdd195c995960721b6044820152606490fd5b60405162461bcd60e51b815260206004820152600f60248201526e098cadccee8d040dad2e6dac2e8c6d608b1b6044820152606490fd5b3461031b57602036600319011261031b57600435600881101561031b57610da660209161273c565b54604051908152f35b3461031b57602036600319011261031b576001600160a01b03610dd061277e565b165f526006602052602060ff60405f2054166040519015158152f35b3461031b57604036600319011261031b57610e9a610e0861277e565b60206024358092610e2360018060a01b035f541633146128b7565b60025f5260048352610e50610e3c8360405f20546128f5565b60025f526003855260405f20541015612902565b60025f526004835260405f20610e678382546128f5565b905560405163a9059cbb60e01b81526001600160a01b039091166004820152602481019190915292839081906044820190565b03815f7f00000000000000000000000000000000000000000000000000000000000000006001600160a01b03165af19182156106dd577f4c1b3b3394846ab373de9133753b640589e7c59db31643876068252b8cf3ff4d92610f02915f91610f16575061295b565b6040805160028152602081019290925290a1005b610f2f915060203d602011610756576107488183612896565b8461095b565b3461031b57604036600319011261031b576024356001600160a01b038116810361031b576004355f526012602052600560405f20019060018060a01b03165f52602052602060ff60405f2054166040519015158152f35b3461031b5760c036600319011261031b576004356024359060443590606435926084359060a435610fc760018060a01b035f541633146128b7565b428411156110dc57838211156110a457821561106f577fc803b2bd47062bc929dc0b61e359c74f570e26113a03613693a434b0a0644c0e956060955f60e06040516110118161287a565b888152866020820152836040820152848a8201528760808201528560a08201528260c082015201528560075583600855600955600a5582600b55600c555f600d5560ff19600e5416600e5560405192835260208301526040820152a1005b60405162461bcd60e51b815260206004820152600d60248201526c496e76616c696420707269636560981b6044820152606490fd5b60405162461bcd60e51b815260206004820152601060248201526f496e76616c696420656e642074696d6560801b6044820152606490fd5b60405162461bcd60e51b8152602060048201526012602482015271496e76616c69642073746172742074696d6560701b6044820152606490fd5b3461031b57602036600319011261031b576004355f52601260205260405f20604051905f91815461114681612827565b80835260208301916001811690811561120257506001146111c9575b506111728260c094950383612896565b600184015493600281015490600460038201549101549160405196879560a087525180958160a08901528888015e5f8686018801526020860152604085015260608401526080830152601f01601f19168101030190f35b9350825f5260205f205f905b8582106111ec575082016020019350611172611162565b60018160209254838588010152019101906111d5565b60ff1916835250151560051b82016020019350611172611162565b3461031b575f36600319011261031b57602060405162ed4e008152f35b3461031b57602036600319011261031b5761125361277e565b61126760018060a01b035f541633146128b7565b5f80546001600160a01b0319166001600160a01b0392909216919091179055005b3461031b575f36600319011261031b576020601354604051908152f35b3461031b57602036600319011261031b576001600160a01b036112c661277e565b165f526014602052602060405f2054604051908152f35b3461031b575f36600319011261031b57600154801515908161143c575b501561140557335f52601460205260405f205480156113d057335f81815260146020908152604080832092909255905163a9059cbb60e01b81526004810192909252602482018390529091908280604481015b03815f7f00000000000000000000000000000000000000000000000000000000000000006001600160a01b03165af19081156106dd576113b86106b3927fc7798891864187665ac6dd119286e44ec13f014527aeeb2b8eb3fd413df93179945f9161097f575061295b565b60408051338152602081019290925290918291820190565b60405162461bcd60e51b815260206004820152600d60248201526c27379030b63637b1b0ba34b7b760991b6044820152606490fd5b60405162461bcd60e51b815260206004820152600f60248201526e1511d1481b9bdd081cdd185c9d1959608a1b6044820152606490fd5b9050421015816112fa565b3461031b575f36600319011261031b576020600154604051908152f35b3461031b57602036600319011261031b5761147d61277e565b5f60c060405161148c8161285f565b8281528260208201528260408201528260608201528260808201528260a0820152015260018060a01b03165f52600560205260e06114cc60405f20612999565b60c060405191805183526020810151602084015260408101516040840152606081015160608401526080810151608084015260a0810151151560a08401520151151560c0820152f35b3461031b575f36600319011261031b57602060405160c88152f35b3461031b575f36600319011261031b5760206040516b033b2e3c9fd0803ce80000008152f35b3461031b575f36600319011261031b576040517f00000000000000000000000000000000000000000000000000000000000000006001600160a01b03168152602090f35b3461031b57602036600319011261031b576001600160a01b036115bb61277e565b165f526010602052602060ff60405f2054166040519015158152f35b3461031b57602036600319011261031b576004356001600160401b03811161031b576116079036906004016127af565b9061161c60018060a01b035f541633146128b7565b5f5b82811061162757005b6001906001600160a01b03611640610c02838787612a3b565b165f52601060205260405f208260ff198254161790550161161e565b3461031b57602036600319011261031b5760043560165481101561031b5761168560a09161280b565b50600180831b0381541690600181015490600281015460ff60046003840154930154169260405194855260208501526040840152606083015215156080820152f35b3461031b57602036600319011261031b5760043560155481101561031b576116f06020916127df565b905460405160039290921b1c6001600160a01b03168152f35b3461031b575f36600319011261031b5761172d60018060a01b035f541633146128b7565b60085442111561183157600e5460ff81166117f85760019060ff191617600e55600d54670de0b6b3a7640000810290808204670de0b6b3a7640000149015171561099e57600b5461177d91612a5f565b60015f52600460205260405f206117958282546128f5565b90555f8054600d548291829182916001600160a01b03168282156117ef575bf1156106dd5760407f9e3549046d09aaa71d1fd479aab4d5e964cb10a9a516266120042f5e2735798291600d549082519182526020820152a1005b506108fc6117b4565b60405162461bcd60e51b8152602060048201526011602482015270105b1c9958591e48199a5b985b1a5e9959607a1b6044820152606490fd5b60405162461bcd60e51b815260206004820152600e60248201526d14d85b19481b9bdd08195b99195960921b6044820152606490fd5b3461031b57608036600319011261031b5761188061277e565b60243560443591600883101561031b5760643580151580910361031b576118b160018060a01b035f541633146128b7565b6001600160a01b0382165f8181526006602052604090205490949060ff16611a6957600381148015611a5f575b15611a275761190a6118f9856118f384612767565b546128f5565b6119028361273c565b541015612902565b6001549462ed4e0086019283871161099e577f969705509595726740fe60cc30769bbd53c883efff4d8e70108a82817e0392a9966119c560056119f796604051906119548261285f565b8a82526020820194855260408201908152606082016303c26700815260808301915f835260a0840197885260c08401965f8852895f528560205260405f20945185555160018501555160028401555160038301555160048201550192511515839060ff801983541691151516179055565b51815461ff00191690151560081b61ff00161790555f908152600660205260409020805460ff19166001179055612767565b611a028382546128f5565b9055604080516001600160a01b039092168252602082019290925290819081016106b3565b60405162461bcd60e51b815260206004820152601060248201526f496e76616c69642063617465676f727960801b6044820152606490fd5b50600481146118de565b60405162461bcd60e51b8152602060048201526013602482015272416c7265616479206861732076657374696e6760681b6044820152606490fd5b3461031b575f36600319011261031b57602060405160fa8152f35b3461031b575f36600319011261031b575f546040516001600160a01b039091168152602090f35b3461031b57606036600319011261031b576024356004356044356001600160401b03811161031b57611b1c9036906004016127af565b929091805f52601260205260405f209160038301544211611df657600583019260018060a01b0333165f528360205260ff60405f205416611dbf5760405160208101903360601b825283603482015260348152611b7a605482612896565b5190206004820154956001600160401b038811610532578760051b60405198611ba6602083018b612896565b8952602089019082019136831161031b57905b828210611daf57505050935f945b8751861015611c3a57600586901b88016020015160019190808211611c11576040519060208201928352604082015260408152611c05606082612896565b519020955b0194611bc7565b906040519060208201928352604082015260408152611c31606082612896565b51902095611c0a565b8603611d7a5760018060a01b0333165f5260205260405f20600160ff1982541617905560016002820191611c6f8484546128f5565b809355015410611d355760405163a9059cbb60e01b815233600482015260248101829052916020836044815f6001600160a01b037f0000000000000000000000000000000000000000000000000000000000000000165af19182156106dd57611d026060937f752d3a5de250652e9111e24fea2886c837dadfe50c8479ad3b5511f4c36f20a2955f91611d16575061295b565b6040519182523360208301526040820152a1005b611d2f915060203d602011610756576107488183612896565b8661095b565b60405162461bcd60e51b815260206004820152601b60248201527f457863656564732063616d706169676e20616c6c6f636174696f6e00000000006044820152606490fd5b60405162461bcd60e51b815260206004820152600d60248201526c24b73b30b634b210383937b7b360991b6044820152606490fd5b8135815260209182019101611bb9565b60405162461bcd60e51b815260206004820152600f60248201526e105b1c9958591e4818db185a5b5959608a1b6044820152606490fd5b60405162461bcd60e51b815260206004820152601260248201527110db185a5b481c195c9a5bd908195b99195960721b6044820152606490fd5b3461031b575f36600319011261031b57335f52600660205260ff60405f20541615611f3357335f52600560205260405f2060ff600582015460081c16611efc57611e81611e7c82612999565b612a7d565b908115611ec057600401611e968282546128f5565b905560405163a9059cbb60e01b81523360048201526024810182905290602082806044810161134d565b60405162461bcd60e51b81526020600482015260146024820152734e6f20746f6b656e7320746f2072656c6561736560601b6044820152606490fd5b60405162461bcd60e51b815260206004820152600f60248201526e15995cdd1a5b99c81c995d9bdad959608a1b6044820152606490fd5b60405162461bcd60e51b81526020600482015260136024820152724e6f2076657374696e67207363686564756c6560681b6044820152606490fd5b3461031b57602036600319011261031b576004356001600160401b03811161031b57611f9e9036906004016127af565b90611fb360018060a01b035f541633146128b7565b5f5b828110611fbe57005b6001906001600160a01b03611fd7610c02838787612a3b565b165f52601060205260405f2060ff19815416905501611fb5565b612706565b612721565b3461031b57608036600319011261031b576004356001600160401b03811161031b573660238201121561031b5780600401356001600160401b03811161031b57366024828401011161031b576024359061205f60018060a01b035f541633146128b7565b60075f5260046020526120ab6120798360405f20546128f5565b60075f5260036020527ff2c49132ed1cee2a7e75bde50d332a2f81f1d01e5456d8a19d1df09bd561dbd2541015612902565b601354915f19831461099e5760018301601355825f52601260205260405f206120d48154612827565b601f811161223d575b505f601f84116001146121ad579183916080947f6ead962d85b782a45b0c184d0e28345182f8fe00a089aa1ccf81d540eb7886d79796945f9161219f575b508360011b905f198560031b1c19161781555b816001820155612140604435426128f5565b6003820155600460643591015560075f52600460205260405f206121658282546128f5565b905581602460405196879586526060602087015282606087015201858501375f8383018501526040830152601f01601f19168101030190a1005b60249150870101358861211b565b601f19841690825f5260205f20915f5b8181106122225750918593916080967f6ead962d85b782a45b0c184d0e28345182f8fe00a089aa1ccf81d540eb7886d79998969410612206575b5050600183811b01815561212e565b8701602401355f19600386901b60f8161c1916905587806121f7565b91926020600181926024878d010135815501940192016121bd565b815f5260205f20601f850160051c81019160208610612278575b601f0160051c01905b81811061226d57506120dd565b5f8155600101612260565b9091508190612257565b3461031b575f36600319011261031b5760206040516303c267008152f35b3461031b57602036600319011261031b576122b961277e565b6122cd60018060a01b035f541633146128b7565b60018060a01b0381165f52600560205260405f2060058101805460ff81161561248f5760081c60ff1661245857612306611e7c83612999565b92836123bf575b5061232d925061010061ff00198254161790556004815491015490612a2e565b8061233457005b5f805460405163a9059cbb60e01b81526001600160a01b0391821660048201526024810193909352602091839160449183917f0000000000000000000000000000000000000000000000000000000000000000165af180156106dd57610018915f916123a0575061295b565b6123b9915060203d602011610756576107488183612896565b8261095b565b61240893602091600485016123d58382546128f5565b905560405163a9059cbb60e01b81526001600160a01b039091166004820152602481019190915293849081906044820190565b03815f7f00000000000000000000000000000000000000000000000000000000000000006001600160a01b03165af19283156106dd5761232d93612452915f9161097f575061295b565b8361230d565b60405162461bcd60e51b815260206004820152600f60248201526e105b1c9958591e481c995d9bdad959608a1b6044820152606490fd5b60405162461bcd60e51b815260206004820152600d60248201526c4e6f74207265766f6361626c6560981b6044820152606490fd5b3461031b57602036600319011261031b576001600160a01b036124e561277e565b165f52600f602052602060405f2054604051908152f35b3461031b575f36600319011261031b57610100600754600854600954600a54600b54600c5491600d549360ff600e541695604051978852602088015260408701526060860152608085015260a084015260c0830152151560e0820152f35b3461031b57602036600319011261031b57602061257d61257861277e565b6129f1565b604051908152f35b3461031b57604036600319011261031b576126006125a161277e565b602060243580926125bc60018060a01b035f541633146128b7565b60065f52600483526125e96125d58360405f20546128f5565b60065f526003855260405f20541015612902565b60065f526004835260405f20610e678382546128f5565b03815f7f00000000000000000000000000000000000000000000000000000000000000006001600160a01b03165af19182156106dd577f4c1b3b3394846ab373de9133753b640589e7c59db31643876068252b8cf3ff4d92612668915f91610f16575061295b565b6040805160068152602081019290925290a1005b3461031b57602036600319011261031b57600435600881101561031b57610da6602091612767565b3461031b57602036600319011261031b57600435600881101561031b57806126d76126d060409361273c565b5491612767565b5482519182526020820152f35b3461031b575f36600319011261031b57602060ff600254166040519015158152f35b3461031b575f36600319011261031b57602060405160328152f35b3461031b575f36600319011261031b57602060405160648152f35b6008811015612753575f52600360205260405f2090565b634e487b7160e01b5f52602160045260245ffd5b6008811015612753575f52600460205260405f2090565b600435906001600160a01b038216820361031b57565b3461031b575f36600319011261031b57602060405160968152f35b9181601f8401121561031b578235916001600160401b03831161031b576020808501948460051b01011161031b57565b6015548110156127f75760155f5260205f2001905f90565b634e487b7160e01b5f52603260045260245ffd5b6016548110156127f75760165f52600560205f20910201905f90565b90600182811c92168015612855575b602083101461284157565b634e487b7160e01b5f52602260045260245ffd5b91607f1691612836565b60e081019081106001600160401b0382111761053257604052565b61010081019081106001600160401b0382111761053257604052565b90601f801991011681019081106001600160401b0382111761053257604052565b156128be57565b60405162461bcd60e51b815260206004820152600f60248201526e4f6e6c7920676f7665726e616e636560881b6044820152606490fd5b9190820180921161099e57565b1561290957565b60405162461bcd60e51b815260206004820152601260248201527122bc31b2b2b2399030b63637b1b0ba34b7b760711b6044820152606490fd5b9081602091031261031b5751801515810361031b5790565b1561296257565b60405162461bcd60e51b815260206004820152600f60248201526e151c985b9cd9995c8819985a5b1959608a1b6044820152606490fd5b906040516129a68161285f565b60c060ff6005839580548552600181015460208601526002810154604086015260038101546060860152600481015460808601520154818116151560a085015260081c161515910152565b6001600160a01b03165f8181526006602052604090205460ff1615612a29575f526005602052612a26611e7c60405f20612999565b90565b505f90565b9190820391821161099e57565b91908110156127f75760051b0190565b356001600160a01b038116810361031b5790565b8115612a69570490565b634e487b7160e01b5f52601260045260245ffd5b60408101514210612a2957805160648102908082046064149015171561099e576103e890049060208101805190612aba60608401928351906128f5565b4210612ad5575050612a26915060808151915b015190612a2e565b612ae0905142612a2e565b612aeb848451612a2e565b81810291818304149015171561099e57612a2693612b10612b16926080945190612a5f565b906128f5565b91612acd56fea264697066735822122027e4f505cf99eb0d9ebd83c31803fb51fde04ffb379ec2bf96feac0bc9b0895b64736f6c634300081e0033","linkReferences":{}},"methodIdentifiers":{"ADVISORS()":"4ed87713","CLIFF_DURATION()":"b3daa652","COMMUNITY_AIRDROPS()":"3ebe4349","ECOSYSTEM_FUND()":"983c44d6","GENESIS_VALIDATORS()":"2da6afb3","LIQUIDITY_PROVISION()":"1cc298fe","PUBLIC_SALE()":"5f89584e","STAKING_REWARDS()":"07bce0cd","TEAM_ALLOCATION()":"fd99cbed","TGE_UNLOCK()":"4eaee3f3","TOTAL_SUPPLY()":"902d55a5","VESTING_DURATION()":"4cfc4d30","addToWhitelist(address[])":"7f649783","airdropCampaigns(uint256)":"c4400b2f","allocateEcosystemFunds(address,uint256)":"cfe845ca","allocateStakingRewards(address,uint256)":"294a48bc","categoryAllocations(uint8)":"e2dd00d8","categoryDistributed(uint8)":"23bda00a","claimAirdrop(uint256,uint256,bytes32[])":"5a95ba34","claimGenesisAllocation()":"a4a23317","configurePublicSale(uint256,uint256,uint256,uint256,uint256,uint256)":"c61ebe79","contributeToPublicSale()":"e59c9510","createAirdropCampaign(string,uint256,uint256,bytes32)":"4d906de2","createVestingSchedule(address,uint256,uint8,bool)":"68915ed3","finalizePublicSale()":"73eda3cc","genesisValidatorAllocations(address)":"a9b14ba2","genesisValidators(uint256)":"7af3402d","getCategoryAllocation(uint8)":"16ad05aa","getReleasableAmount(address)":"2afd1a7d","getVestingSchedule(address)":"9f829063","governance()":"5aa6e675","hasClaimedAirdrop(uint256,address)":"ced65280","hasVesting(address)":"d8449b63","initialize(uint256)":"fe4b84df","initialized()":"158ef93e","liquidityProvisions(uint256)":"7e06e913","nextAirdropId()":"aff38dc8","provideLiquidity(uint256)":"eb521a4c","publicSale()":"33bc1c5c","publicSaleContributions(address)":"35f74869","publicSaleWhitelist(address)":"8c190b9f","qtmToken()":"8f167683","registerGenesisValidators(address[],uint256[])":"e395aedf","releaseVestedTokens()":"54dd1da4","removeFromWhitelist(address[])":"548db174","revokeVesting(address)":"3b0da260","scheduleLiquidityProvision(address,uint256,uint256,uint256)":"ef406fdc","tgeTimestamp()":"a4317ef4","updateGovernance(address)":"b2561263","updateWhitelistRequirement(bool)":"ee772da7","vestingSchedules(address)":"fdb20ccb","whitelistRequired()":"fb08f3a1"},"id":2}