{"abi":[{"type":"constructor","inputs":[{"name":"_qtmToken","type":"address","internalType":"address"}],"stateMutability":"nonpayable"},{"type":"function","name":"DRIP_AMOUNT","inputs":[],"outputs":[{"name":"","type":"uint256","internalType":"uint256"}],"stateMutability":"view"},{"type":"function","name":"DRIP_INTERVAL","inputs":[],"outputs":[{"name":"","type":"uint256","internalType":"uint256"}],"stateMutability":"view"},{"type":"function","name":"FAUCET_RESERVE","inputs":[],"outputs":[{"name":"","type":"uint256","internalType":"uint256"}],"stateMutability":"view"},{"type":"function","name":"MAX_BALANCE","inputs":[],"outputs":[{"name":"","type":"uint256","internalType":"uint256"}],"stateMutability":"view"},{"type":"function","name":"VALIDATOR_DRIP_AMOUNT","inputs":[],"outputs":[{"name":"","type":"uint256","internalType":"uint256"}],"stateMutability":"view"},{"type":"function","name":"VALIDATOR_MAX_BALANCE","inputs":[],"outputs":[{"name":"","type":"uint256","internalType":"uint256"}],"stateMutability":"view"},{"type":"function","name":"batchDrip","inputs":[{"name":"recipients","type":"address[]","internalType":"address[]"}],"outputs":[],"stateMutability":"nonpayable"},{"type":"function","name":"batchUpdateBlacklist","inputs":[{"name":"accounts","type":"address[]","internalType":"address[]"},{"name":"blacklisted","type":"bool","internalType":"bool"}],"outputs":[],"stateMutability":"nonpayable"},{"type":"function","name":"canRequest","inputs":[{"name":"account","type":"address","internalType":"address"}],"outputs":[{"name":"canDrip","type":"bool","internalType":"bool"},{"name":"timeUntilNext","type":"uint256","internalType":"uint256"},{"name":"maxAmount","type":"uint256","internalType":"uint256"}],"stateMutability":"view"},{"type":"function","name":"clearAllBlacklists","inputs":[],"outputs":[],"stateMutability":"nonpayable"},{"type":"function","name":"emergencyWithdraw","inputs":[{"name":"amount","type":"uint256","internalType":"uint256"}],"outputs":[],"stateMutability":"nonpayable"},{"type":"function","name":"getFaucetStats","inputs":[],"outputs":[{"name":"balance","type":"uint256","internalType":"uint256"},{"name":"totalDistributed","type":"uint256","internalType":"uint256"},{"name":"requests","type":"uint256","internalType":"uint256"},{"name":"unique","type":"uint256","internalType":"uint256"},{"name":"averagePerUser","type":"uint256","internalType":"uint256"}],"stateMutability":"view"},{"type":"function","name":"getUserStats","inputs":[{"name":"account","type":"address","internalType":"address"}],"outputs":[{"name":"lastRequest","type":"uint256","internalType":"uint256"},{"name":"total","type":"uint256","internalType":"uint256"},{"name":"isValidator","type":"bool","internalType":"bool"},{"name":"blacklisted","type":"bool","internalType":"bool"},{"name":"currentBalance","type":"uint256","internalType":"uint256"}],"stateMutability":"view"},{"type":"function","name":"isBlacklisted","inputs":[{"name":"","type":"address","internalType":"address"}],"outputs":[{"name":"","type":"bool","internalType":"bool"}],"stateMutability":"view"},{"type":"function","name":"isVerifiedValidator","inputs":[{"name":"","type":"address","internalType":"address"}],"outputs":[{"name":"","type":"bool","internalType":"bool"}],"stateMutability":"view"},{"type":"function","name":"lastDripTime","inputs":[{"name":"","type":"address","internalType":"address"}],"outputs":[{"name":"","type":"uint256","internalType":"uint256"}],"stateMutability":"view"},{"type":"function","name":"owner","inputs":[],"outputs":[{"name":"","type":"address","internalType":"address"}],"stateMutability":"view"},{"type":"function","name":"qtmToken","inputs":[],"outputs":[{"name":"","type":"address","internalType":"contract IQuantumToken"}],"stateMutability":"view"},{"type":"function","name":"refillFaucet","inputs":[{"name":"amount","type":"uint256","internalType":"uint256"}],"outputs":[],"stateMutability":"nonpayable"},{"type":"function","name":"requestTokens","inputs":[],"outputs":[],"stateMutability":"nonpayable"},{"type":"function","name":"requestValidatorTokens","inputs":[{"name":"quantumPublicKey","type":"bytes","internalType":"bytes"},{"name":"signature","type":"bytes","internalType":"bytes"},{"name":"nonce","type":"bytes32","internalType":"bytes32"}],"outputs":[],"stateMutability":"nonpayable"},{"type":"function","name":"resetCooldown","inputs":[{"name":"account","type":"address","internalType":"address"}],"outputs":[],"stateMutability":"nonpayable"},{"type":"function","name":"setCustomDripAmount","inputs":[{"name":"account","type":"address","internalType":"address"},{"name":"amount","type":"uint256","internalType":"uint256"}],"outputs":[],"stateMutability":"nonpayable"},{"type":"function","name":"totalDripped","inputs":[],"outputs":[{"name":"","type":"uint256","internalType":"uint256"}],"stateMutability":"view"},{"type":"function","name":"totalReceived","inputs":[{"name":"","type":"address","internalType":"address"}],"outputs":[{"name":"","type":"uint256","internalType":"uint256"}],"stateMutability":"view"},{"type":"function","name":"totalRequests","inputs":[],"outputs":[{"name":"","type":"uint256","internalType":"uint256"}],"stateMutability":"view"},{"type":"function","name":"transferOwnership","inputs":[{"name":"newOwner","type":"address","internalType":"address"}],"outputs":[],"stateMutability":"nonpayable"},{"type":"function","name":"uniqueRecipients","inputs":[],"outputs":[{"name":"","type":"uint256","internalType":"uint256"}],"stateMutability":"view"},{"type":"function","name":"updateBlacklist","inputs":[{"name":"account","type":"address","internalType":"address"},{"name":"blacklisted","type":"bool","internalType":"bool"}],"outputs":[],"stateMutability":"nonpayable"},{"type":"function","name":"usedNonces","inputs":[{"name":"","type":"bytes32","internalType":"bytes32"}],"outputs":[{"name":"","type":"bool","internalType":"bool"}],"stateMutability":"view"},{"type":"function","name":"validatorQuantumKeys","inputs":[{"name":"","type":"address","internalType":"address"}],"outputs":[{"name":"","type":"bytes","internalType":"bytes"}],"stateMutability":"view"},{"type":"function","name":"verifyValidator","inputs":[{"name":"validator","type":"address","internalType":"address"},{"name":"quantumPublicKey","type":"bytes","internalType":"bytes"}],"outputs":[],"stateMutability":"nonpayable"},{"type":"event","name":"BlacklistUpdated","inputs":[{"name":"account","type":"address","indexed":true,"internalType":"address"},{"name":"blacklisted","type":"bool","indexed":false,"internalType":"bool"}],"anonymous":false},{"type":"event","name":"ConfigurationUpdated","inputs":[{"name":"parameter","type":"string","indexed":false,"internalType":"string"},{"name":"value","type":"uint256","indexed":false,"internalType":"uint256"}],"anonymous":false},{"type":"event","name":"Dripped","inputs":[{"name":"recipient","type":"address","indexed":true,"internalType":"address"},{"name":"amount","type":"uint256","indexed":false,"internalType":"uint256"},{"name":"isValidator","type":"bool","indexed":false,"internalType":"bool"}],"anonymous":false},{"type":"event","name":"EmergencyWithdraw","inputs":[{"name":"amount","type":"uint256","indexed":false,"internalType":"uint256"}],"anonymous":false},{"type":"event","name":"FaucetRefilled","inputs":[{"name":"amount","type":"uint256","indexed":false,"internalType":"uint256"}],"anonymous":false},{"type":"event","name":"ValidatorVerified","inputs":[{"name":"validator","type":"address","indexed":true,"internalType":"address"},{"name":"quantumPublicKey","type":"bytes","indexed":false,"internalType":"bytes"}],"anonymous":false}],"bytecode":{"object":"0x60a0346100bc57601f611f1038819003918201601f19168301916001600160401b038311848410176100c0578084926020946040528339810103126100bc57516001600160a01b038116908190036100bc576080525f80546001600160a01b03191633179055604051611e3b90816100d58239608051818181610321015281816109e001528181610cc301528181610de001528181611115015281816114020152818161156f015281816116ff0152818161181e0152611c2a0152f35b5f80fd5b634e487b7160e01b5f52604160045260245ffdfe6080806040526004361015610012575f80fd5b5f3560e01c908163053e133e146119585750806319be66c21461193257806320d723281461190e5780632d5e628f146118f1578063359cf2b7146117c05780634df9cfb3146117885780634e43603a146116805780635312ea8e1461152d5780635d8bc6b7146115105780635e16c00f1461138e5780636072e6a8146112b357806383ec0865146111c05780638aea61dc146111a35780638b8a60bd1461116b5780638da5cb5b146111445780638f167683146111005780639155e083146110775780639391733414610d865780639c37288c14610d4e578063a6e340c614610c71578063b1bb250314610aca578063b5086b9414610aa6578063c13463c9146109b5578063c7274f3a14610998578063def92c6914610975578063e98890a714610952578063ef93a6b41461090c578063f2fde38b14610886578063f9052c6c14610849578063fb07b1b3146101ec578063fe575a87146101af5763feb617241461017c575f80fd5b346101ab5760203660031901126101ab576004355f526006602052602060ff60405f2054166040519015158152f35b5f80fd5b346101ab5760203660031901126101ab576001600160a01b036101d061197b565b165f526004602052602060ff60405f2054166040519015158152f35b346101ab5760603660031901126101ab5760043567ffffffffffffffff81116101ab5761021d903690600401611a2b565b60243567ffffffffffffffff81116101ab5761023d903690600401611a2b565b90604435335f52600460205261025a60ff60405f20541615611a92565b805f52600660205260ff60405f20541661080f57806102dc915f52600660205260405f20600160ff1982541617905560405160208101913360601b83526034820152701590531251105513d497d49154555154d5607a1b6054820152604581526102c5606582611a09565b519020916102d4368688611d9f565b933691611d9f565b915115159182610804575b50816107fa575b50156107c157335f52600360205260ff60405f2054161561064f575b50506040516370a0823160e01b81523360048201527f00000000000000000000000000000000000000000000000000000000000000006001600160a01b0316602082602481845afa918215610512575f9261061b575b50335f52600360205260ff60405f2054165f1461060b57692a5a058fc295ed000000915b828110156105d357335f52600360205260ff60405f2054165f146105c35769152d02c7e14af6800000925b806103ba8584611b6d565b116105b0575b50506040516370a0823160e01b8152306004820152602081602481855afa80156105125783915f9161057b575b501061054757335f5260016020524260405f2055335f52600260205260405f20610418838254611b6d565b905561042682600754611b6d565b600755610434600854611bb2565b600855335f52600a60205260ff60405f2054161561051d575b60405163a9059cbb60e01b81523360048201526024810183905290602090829060449082905f905af180156105125761048d915f916104e3575b50611b2f565b335f5260036020527f6598076c9af2410c0669c503130ed827a55d3e687985526680111a722364f4316104de60ff60405f205416604051918291339583909291602090604083019483521515910152565b0390a2005b610505915060203d60201161050b575b6104fd8183611a09565b810190611b17565b83610487565b503d6104f3565b6040513d5f823e3d90fd5b335f52600a60205260405f20600160ff1982541617905561053f600954611bb2565b60095561044d565b60405162461bcd60e51b815260206004820152600c60248201526b46617563657420656d70747960a01b6044820152606490fd5b9150506020813d6020116105a8575b8161059760209383611a09565b810103126101ab57829051846103ed565b3d915061058a565b6105bb929350611bc0565b9082806103c0565b68056bc75e2d63100000926103af565b60405162461bcd60e51b815260206004820152601060248201526f084c2d8c2dcc6ca40e8dede40d0d2ced60831b6044820152606490fd5b683635c9adc5dea0000091610384565b9091506020813d602011610647575b8161063760209383611a09565b810103126101ab57519082610360565b3d915061062a565b335f52600360205260405f20600160ff19825416179055335f52600560205260405f2067ffffffffffffffff82116107ad5761068b81546119d1565b601f8111610768575b505f601f83116001146106f357916106de91815f516020611de65f395f51905f52945f916106e8575b508260011b905f198460031b1c19161790555b604051918291339583611d78565b0390a2808061030a565b9050850135866106bd565b601f19831690825f5260205f20915f5b8181106107505750916106de9391855f516020611de65f395f51905f52969410610737575b5050600182811b0190556106d0565b8601355f19600385901b60f8161c191690558580610728565b9192602060018192868a013581550194019201610703565b815f5260205f20601f840160051c810191602085106107a3575b601f0160051c01905b8181106107985750610694565b5f815560010161078b565b9091508190610782565b634e487b7160e01b5f52604160045260245ffd5b60405162461bcd60e51b8152602060048201526011602482015270496e76616c6964207369676e617475726560781b6044820152606490fd5b90501515836102ee565b5115159150846102e7565b60405162461bcd60e51b8152602060048201526012602482015271139bdb98d948185b1c9958591e481d5cd95960721b6044820152606490fd5b346101ab5760203660031901126101ab576001600160a01b0361086a61197b565b165f526003602052602060ff60405f2054166040519015158152f35b346101ab5760203660031901126101ab5761089f61197b565b5f54906108b6336001600160a01b03841614611a59565b6001600160a01b03169081156108d5576001600160a01b031916175f55005b60405162461bcd60e51b815260206004820152600f60248201526e496e76616c6964206164647265737360881b6044820152606490fd5b346101ab5760203660031901126101ab5761092561197b565b61093960018060a01b035f54163314611a59565b6001600160a01b03165f90815260016020526040812055005b346101ab575f3660031901126101ab57602060405168056bc75e2d631000008152f35b346101ab575f3660031901126101ab576020604051683635c9adc5dea000008152f35b346101ab575f3660031901126101ab576020600754604051908152f35b346101ab575f3660031901126101ab576040516370a0823160e01b81523060048201526020816024817f00000000000000000000000000000000000000000000000000000000000000006001600160a01b03165afa908115610512575f91610a74575b5060075460085460095490929190801580610a6957610a555760a093818304925b6040519485526020850152604084015260608301526080820152f35b634e487b7160e01b5f52601260045260245ffd5b5060a0935f92610a39565b90506020813d602011610a9e575b81610a8f60209383611a09565b810103126101ab575181610a18565b3d9150610a82565b346101ab575f3660031901126101ab57602060405169152d02c7e14af68000008152f35b346101ab5760403660031901126101ab57610ae361197b565b60243567ffffffffffffffff81116101ab57610b03903690600401611a2b565b9091610b1960018060a01b035f54163314611a59565b6001600160a01b03165f818152600360209081526040808320805460ff19166001179055600590915290209290919067ffffffffffffffff82116107ad57610b6184546119d1565b601f8111610c2c575b505f93601f8311600114610bbd57825f516020611de65f395f51905f5294955f91610bb2575b508360011b905f198560031b1c19161790555b6104de60405192839283611d78565b905082013586610b90565b601f19831694815f5260205f20905f5b878110610c145750845f516020611de65f395f51905f52969710610bfb575b5050600183811b019055610ba3565b8301355f19600386901b60f8161c191690558580610bec565b90916020600181928588013581550193019101610bcd565b845f5260205f20601f840160051c81019160208510610c67575b601f0160051c01905b818110610c5c5750610b6a565b5f8155600101610c4f565b9091508190610c46565b346101ab5760203660031901126101ab57600435610c9960018060a01b035f54163314611a59565b6040516323b872dd60e01b815233600482015230602482015260448101829052906020826064815f7f00000000000000000000000000000000000000000000000000000000000000006001600160a01b03165af190811561051257610d286020927f60a0357edcf020721346a83ca392436c8d428dca2c17a22a371ec28a10f09729945f91610d315750611b2f565b604051908152a1005b610d489150843d861161050b576104fd8183611a09565b85610487565b346101ab5760203660031901126101ab576060610d71610d6c61197b565b611bcd565b90604051921515835260208301526040820152f35b346101ab5760203660031901126101ab5760043567ffffffffffffffff81116101ab57610db7903690600401611991565b610dcb60018060a01b035f54163314611a59565b6040516370a0823160e01b81523060048201527f00000000000000000000000000000000000000000000000000000000000000006001600160a01b03169290602081602481875afa908115610512575f91611045575b5068056bc75e2d63100000830283810468056bc75e2d63100000148415171561103157610e4f911015611ad4565b5f5b828110610e6957610e6483600854611b6d565b600855005b6001600160a01b03610e84610e7f838686611b7a565b611b9e565b165f52600460205260ff60405f20541615610ea2575b600101610e51565b6001600160a01b03610eb8610e7f838686611b7a565b165f52600260205260405f2080549068056bc75e2d631000008201809211611031575560075468056bc75e2d631000008101809111611031576007556001600160a01b03610f0a610e7f838686611b7a565b165f52600a60205260ff60405f20541615610ff1575b610f2e610e7f828585611b7a565b60405163a9059cbb60e01b81526001600160a01b03909116600482015268056bc75e2d631000006024820152906020826044815f895af191821561051257600192610f7f915f91610fd35750611b2f565b818060a01b03610f93610e7f838787611b7a565b167f6598076c9af2410c0669c503130ed827a55d3e687985526680111a722364f4316040805168056bc75e2d6310000081525f6020820152a29050610e9a565b610feb915060203d811161050b576104fd8183611a09565b87610487565b6001600160a01b03611007610e7f838686611b7a565b165f52600a60205260405f20600160ff19825416179055611029600954611bb2565b600955610f20565b634e487b7160e01b5f52601160045260245ffd5b90506020813d60201161106f575b8161106060209383611a09565b810103126101ab575184610e21565b3d9150611053565b346101ab5760403660031901126101ab5761109061197b565b7f6a12b3df6cba4203bd7fd06b816789f87de8c594299aed5717ae070fac781bac60206110bb6119c2565b926110d060018060a01b035f54163314611a59565b6001600160a01b03165f8181526004835260409020805460ff191660ff86151516179055926040519015158152a2005b346101ab575f3660031901126101ab576040517f00000000000000000000000000000000000000000000000000000000000000006001600160a01b03168152602090f35b346101ab575f3660031901126101ab575f546040516001600160a01b039091168152602090f35b346101ab5760203660031901126101ab576001600160a01b0361118c61197b565b165f526001602052602060405f2054604051908152f35b346101ab575f3660031901126101ab576020600854604051908152f35b346101ab5760203660031901126101ab576001600160a01b036111e161197b565b165f52600560205260405f206040515f8254926111fd846119d1565b9081845260208401946001811690815f146112965750600114611256575b8460408561122b81870382611a09565b8151928391602083525180918160208501528484015e5f828201840152601f01601f19168101030190f35b5f90815260208120939250905b80821061127c5750909150810160200161122b8261121b565b919260018160209254838588010152019101909291611263565b60ff191686525050151560051b8201602001905061122b8261121b565b346101ab5760403660031901126101ab5760043567ffffffffffffffff81116101ab576112e4903690600401611991565b6112ec6119c2565b61130060018060a01b035f54163314611a59565b801515905f5b83811061130f57005b6001906001600160a01b03611328610e7f83888a611b7a565b165f5260046020526113498360405f209060ff801983541691151516179055565b818060a01b0361135d610e7f83888a611b7a565b167f6a12b3df6cba4203bd7fd06b816789f87de8c594299aed5717ae070fac781bac6020604051878152a201611306565b346101ab5760403660031901126101ab576113a761197b565b602435906113bf60018060a01b035f54163314611a59565b6a084595161401484a00000082116114d85760405163a9059cbb60e01b81526001600160a01b03821660048201526024810183905290602082806044810103815f7f00000000000000000000000000000000000000000000000000000000000000006001600160a01b03165af1918215610512577f6598076c9af2410c0669c503130ed827a55d3e687985526680111a722364f43192611465915f916114bf5750611b2f565b60018060a01b031691825f52600260205260405f20611485828254611b6d565b905561149381600754611b6d565b6007555f8381526003602090815260409182902054825193845260ff16151590830152819081016104de565b610d48915060203d60201161050b576104fd8183611a09565b60405162461bcd60e51b815260206004820152601060248201526f416d6f756e7420746f6f206c6172676560801b6044820152606490fd5b346101ab575f3660031901126101ab576020604051620151808152f35b346101ab5760203660031901126101ab575f54600435906001600160a01b0316611558338214611a59565b6040516370a0823160e01b815230600482015291907f00000000000000000000000000000000000000000000000000000000000000006001600160a01b03169082602085602481865afa908115610512575f9161164a575b611603955015611642575b9183916115cc602094841115611ad4565b60405163a9059cbb60e01b81526001600160a01b0390911660048201526024810192909252909384919082905f9082906044820190565b03925af190811561051257610d286020927f99d7f8b71cfb9126984f7a5eed3a40e64a8959e9b0e442221546fb04ec6a489c945f91610d315750611b2f565b9250826115bb565b90506020853d602011611678575b8161166560209383611a09565b810103126101ab576116039451906115b0565b3d9150611658565b346101ab5760203660031901126101ab576001600160a01b036116a161197b565b16805f52600160205260405f2054815f52600260205260405f2054825f52600360205260ff60405f205416835f52600460205260ff60405f20541690604051946370a0823160e01b8652600486015260208560248160018060a01b037f0000000000000000000000000000000000000000000000000000000000000000165afa928315610512575f93611753575b60a09550604051948552602085015215156040840152151560608301526080820152f35b92506020853d602011611780575b8161176e60209383611a09565b810103126101ab5760a094519261172f565b3d9150611761565b346101ab5760203660031901126101ab576001600160a01b036117a961197b565b165f526002602052602060405f2054604051908152f35b346101ab575f3660031901126101ab57335f5260046020526117e960ff60405f20541615611a92565b335f52600160205260405f20546201518081018091116110315742106118b4576040516370a0823160e01b81523360048201527f00000000000000000000000000000000000000000000000000000000000000006001600160a01b0316602082602481845afa918215610512575f9261061b5750335f52600360205260ff60405f2054165f1461060b57692a5a058fc295ed00000091828110156105d357335f52600360205260ff60405f2054165f146105c35769152d02c7e14af680000092806103ba8584611b6d565b60405162461bcd60e51b8152602060048201526015602482015274151bdbc81cdbdbdb8b081c1b19585cd9481dd85a5d605a1b6044820152606490fd5b346101ab575f3660031901126101ab576020600954604051908152f35b346101ab575f3660031901126101ab576020604051692a5a058fc295ed0000008152f35b346101ab575f3660031901126101ab5761195660018060a01b035f54163314611a59565b005b346101ab575f3660031901126101ab57806a084595161401484a00000060209252f35b600435906001600160a01b03821682036101ab57565b9181601f840112156101ab5782359167ffffffffffffffff83116101ab576020808501948460051b0101116101ab57565b6024359081151582036101ab57565b90600182811c921680156119ff575b60208310146119eb57565b634e487b7160e01b5f52602260045260245ffd5b91607f16916119e0565b90601f8019910116810190811067ffffffffffffffff8211176107ad57604052565b9181601f840112156101ab5782359167ffffffffffffffff83116101ab57602083818601950101116101ab57565b15611a6057565b60405162461bcd60e51b815260206004820152600a60248201526927b7363c9037bbb732b960b11b6044820152606490fd5b15611a9957565b60405162461bcd60e51b81526020600482015260136024820152721058d8dbdd5b9d08189b1858dadb1a5cdd1959606a1b6044820152606490fd5b15611adb57565b60405162461bcd60e51b8152602060048201526014602482015273496e73756666696369656e742062616c616e636560601b6044820152606490fd5b908160209103126101ab575180151581036101ab5790565b15611b3657565b60405162461bcd60e51b815260206004820152600f60248201526e151c985b9cd9995c8819985a5b1959608a1b6044820152606490fd5b9190820180921161103157565b9190811015611b8a5760051b0190565b634e487b7160e01b5f52603260045260245ffd5b356001600160a01b03811681036101ab5790565b5f1981146110315760010190565b9190820391821161103157565b6001600160a01b03165f8181526004602052604090205490919060ff16611d6f57815f526001602052611c0460405f205442611bc0565b6040516370a0823160e01b815260048101849052919062015180811015906020846024817f00000000000000000000000000000000000000000000000000000000000000006001600160a01b03165afa938415610512575f94611d3b575b50845f52600360205260ff60405f2054165f14611d2c57692a5a058fc295ed0000005b8085109485928415611d1557505f965b5f96611cb3575b50505081611cab575b50929190565b90505f611ca5565b90919295505f52600360205260ff60405f2054165f14611d055769152d02c7e14af6800000915b80611ce58484611b6d565b1115611cfe57611cf59250611bc0565b925f8080611c9c565b5050611cf5565b68056bc75e2d6310000091611cda565b620151809081039350831161103157859296611c95565b683635c9adc5dea00000611c85565b9093506020813d602011611d67575b81611d5760209383611a09565b810103126101ab5751925f611c62565b3d9150611d4a565b5f915081908190565b90918060409360208452816020850152848401375f828201840152601f01601f1916010190565b92919267ffffffffffffffff82116107ad5760405191611dc9601f8201601f191660200184611a09565b8294818452818301116101ab578281602093845f96013701015256fe5665048903a34a1207152511e30e52385b180ee3ae90d8caa848d92dd0c00477a2646970667358221220909dd3733d3903d878141d7c824630588b55f8d6d851c51557d1df4a25574d2d64736f6c634300081e0033","linkReferences":{}},"methodIdentifiers":{"DRIP_AMOUNT()":"e98890a7","DRIP_INTERVAL()":"5d8bc6b7","FAUCET_RESERVE()":"053e133e","MAX_BALANCE()":"def92c69","VALIDATOR_DRIP_AMOUNT()":"b5086b94","VALIDATOR_MAX_BALANCE()":"20d72328","batchDrip(address[])":"93917334","batchUpdateBlacklist(address[],bool)":"6072e6a8","canRequest(address)":"9c37288c","clearAllBlacklists()":"19be66c2","emergencyWithdraw(uint256)":"5312ea8e","getFaucetStats()":"c13463c9","getUserStats(address)":"4e43603a","isBlacklisted(address)":"fe575a87","isVerifiedValidator(address)":"f9052c6c","lastDripTime(address)":"8b8a60bd","owner()":"8da5cb5b","qtmToken()":"8f167683","refillFaucet(uint256)":"a6e340c6","requestTokens()":"359cf2b7","requestValidatorTokens(bytes,bytes,bytes32)":"fb07b1b3","resetCooldown(address)":"ef93a6b4","setCustomDripAmount(address,uint256)":"5e16c00f","totalDripped()":"c7274f3a","totalReceived(address)":"4df9cfb3","totalRequests()":"8aea61dc","transferOwnership(address)":"f2fde38b","uniqueRecipients()":"2d5e628f","updateBlacklist(address,bool)":"9155e083","usedNonces(bytes32)":"feb61724","validatorQuantumKeys(address)":"83ec0865","verifyValidator(address,bytes)":"b1bb2503"},"id":1}